{
  "contractName": "DonationEscrow",
  "abi": [
    {
      "constant": true,
      "inputs": [],
      "name": "donator",
      "outputs": [
        {
          "name": "",
          "type": "address"
        }
      ],
      "payable": false,
      "stateMutability": "view",
      "type": "function"
    },
    {
      "constant": true,
      "inputs": [],
      "name": "donatedValue",
      "outputs": [
        {
          "name": "",
          "type": "uint256"
        }
      ],
      "payable": false,
      "stateMutability": "view",
      "type": "function"
    },
    {
      "constant": true,
      "inputs": [],
      "name": "YgAdmins",
      "outputs": [
        {
          "name": "",
          "type": "address"
        }
      ],
      "payable": false,
      "stateMutability": "view",
      "type": "function"
    },
    {
      "constant": true,
      "inputs": [],
      "name": "proofOfPayment",
      "outputs": [
        {
          "name": "",
          "type": "string"
        }
      ],
      "payable": false,
      "stateMutability": "view",
      "type": "function"
    },
    {
      "constant": true,
      "inputs": [],
      "name": "charityOwner",
      "outputs": [
        {
          "name": "",
          "type": "address"
        }
      ],
      "payable": false,
      "stateMutability": "view",
      "type": "function"
    },
    {
      "constant": true,
      "inputs": [],
      "name": "startTime",
      "outputs": [
        {
          "name": "",
          "type": "uint256"
        }
      ],
      "payable": false,
      "stateMutability": "view",
      "type": "function"
    },
    {
      "constant": true,
      "inputs": [],
      "name": "releaseTime",
      "outputs": [
        {
          "name": "",
          "type": "uint256"
        }
      ],
      "payable": false,
      "stateMutability": "view",
      "type": "function"
    },
    {
      "constant": true,
      "inputs": [],
      "name": "state",
      "outputs": [
        {
          "name": "",
          "type": "uint8"
        }
      ],
      "payable": false,
      "stateMutability": "view",
      "type": "function"
    },
    {
      "constant": true,
      "inputs": [],
      "name": "token",
      "outputs": [
        {
          "name": "",
          "type": "address"
        }
      ],
      "payable": false,
      "stateMutability": "view",
      "type": "function"
    },
    {
      "inputs": [
        {
          "name": "_donator",
          "type": "address"
        },
        {
          "name": "_charityOwner",
          "type": "address"
        },
        {
          "name": "_token",
          "type": "address"
        },
        {
          "name": "_YgAdmins",
          "type": "address"
        },
        {
          "name": "_donatedValue",
          "type": "uint256"
        },
        {
          "name": "_proofOfPayment",
          "type": "string"
        }
      ],
      "payable": false,
      "stateMutability": "nonpayable",
      "type": "constructor"
    },
    {
      "constant": false,
      "inputs": [],
      "name": "validateDonation",
      "outputs": [],
      "payable": false,
      "stateMutability": "nonpayable",
      "type": "function"
    },
    {
      "constant": false,
      "inputs": [],
      "name": "rejectDonation",
      "outputs": [
        {
          "name": "",
          "type": "bool"
        }
      ],
      "payable": false,
      "stateMutability": "nonpayable",
      "type": "function"
    },
    {
      "constant": false,
      "inputs": [],
      "name": "adminValidation",
      "outputs": [],
      "payable": false,
      "stateMutability": "nonpayable",
      "type": "function"
    },
    {
      "constant": false,
      "inputs": [],
      "name": "adminRejection",
      "outputs": [],
      "payable": false,
      "stateMutability": "nonpayable",
      "type": "function"
    },
    {
      "constant": false,
      "inputs": [],
      "name": "releaseTokens",
      "outputs": [],
      "payable": false,
      "stateMutability": "nonpayable",
      "type": "function"
    }
  ],
  "bytecode": "0x608060405234801561001057600080fd5b50604051610caa380380610caa833981018060405260c081101561003357600080fd5b8151602083015160408401516060850151608086015160a0870180519597949693959294919382019264010000000081111561006e57600080fd5b8201602081018481111561008157600080fd5b815164010000000081118282018710171561009b57600080fd5b50506000805460018054600160a060020a038d8116600160a060020a0319928316179092558b82169281163317811692909217909255600280548a841690831617905560038054928916929091169190911790556004859055805190935061010c9250600591506020840190610127565b505042600681905562093a8001600755506101c29350505050565b828054600181600116156101000203166002900490600052602060002090601f016020900481019282601f1061016857805160ff1916838001178555610195565b82800160010185558215610195579182015b8281111561019557825182559160200191906001019061017a565b506101a19291506101a5565b5090565b6101bf91905b808211156101a157600081556001016101ab565b90565b610ad9806101d16000396000f3fe6080604052600436106100cf5763ffffffff7c010000000000000000000000000000000000000000000000000000000060003504166302d2003e81146100d45780630dc65a121461010557806314ff4fc71461012c57806337142c5314610143578063546ac72814610158578063556bc9411461016d5780636711e62f146101825780636ecc75af1461020c57806378e9792514610221578063a96f866814610236578063b91d40011461024b578063c19d93fb14610260578063df1250bd14610299578063fc0c546a146102c2575b600080fd5b3480156100e057600080fd5b506100e96102d7565b60408051600160a060020a039092168252519081900360200190f35b34801561011157600080fd5b5061011a6102e6565b60408051918252519081900360200190f35b34801561013857600080fd5b506101416102ec565b005b34801561014f57600080fd5b50610141610505565b34801561016457600080fd5b506100e96105be565b34801561017957600080fd5b506101416105cd565b34801561018e57600080fd5b506101976107c2565b6040805160208082528351818301528351919283929083019185019080838360005b838110156101d15781810151838201526020016101b9565b50505050905090810190601f1680156101fe5780820380516001836020036101000a031916815260200191505b509250505060405180910390f35b34801561021857600080fd5b506100e9610850565b34801561022d57600080fd5b5061011a61085f565b34801561024257600080fd5b50610141610865565b34801561025757600080fd5b5061011a610998565b34801561026c57600080fd5b5061027561099e565b6040518082600281111561028557fe5b60ff16815260200191505060405180910390f35b3480156102a557600080fd5b506102ae6109a7565b604080519115158252519081900360200190f35b3480156102ce57600080fd5b506100e9610a7e565b600154600160a060020a031681565b60045481565b60028060085460ff16600281111561030057fe5b14610343576040805160e560020a62461bcd02815260206004820152600e6024820152600080516020610a8e833981519152604482015290519081900360640190fd5b600354604080517fe01f2e0f0000000000000000000000000000000000000000000000000000000081523360048201529051600160a060020a039092169163e01f2e0f91602480820192602092909190829003018186803b1580156103a757600080fd5b505afa1580156103bb573d6000803e3d6000fd5b505050506040513d60208110156103d157600080fd5b5051151561044e576040805160e560020a62461bcd028152602060048201526024808201527f4f6e6c7920612059616c6c61476976652041646d696e2063616e2063616c6c2060448201527f7468697300000000000000000000000000000000000000000000000000000000606482015290519081900360840190fd5b6008805460ff19166001908117909155600254905460048054604080517fa9059cbb000000000000000000000000000000000000000000000000000000008152600160a060020a0394851693810193909352602483019190915251919092169163a9059cbb9160448083019260209291908290030181600087803b1580156104d557600080fd5b505af11580156104e9573d6000803e3d6000fd5b505050506040513d60208110156104ff57600080fd5b50339050ff5b60008060085460ff16600281111561051957fe5b1461055c576040805160e560020a62461bcd02815260206004820152600e6024820152600080516020610a8e833981519152604482015290519081900360640190fd5b600054600160a060020a0316331461044e576040805160e560020a62461bcd02815260206004820152601e60248201527f4f6e6c7920746f6b656e206f776e65722063616e2063616c6c20746869730000604482015290519081900360640190fd5b600354600160a060020a031681565b60028060085460ff1660028111156105e157fe5b14610624576040805160e560020a62461bcd02815260206004820152600e6024820152600080516020610a8e833981519152604482015290519081900360640190fd5b600354604080517fe01f2e0f0000000000000000000000000000000000000000000000000000000081523360048201529051600160a060020a039092169163e01f2e0f91602480820192602092909190829003018186803b15801561068857600080fd5b505afa15801561069c573d6000803e3d6000fd5b505050506040513d60208110156106b257600080fd5b5051151561072f576040805160e560020a62461bcd028152602060048201526024808201527f4f6e6c7920612059616c6c61476976652041646d696e2063616e2063616c6c2060448201527f7468697300000000000000000000000000000000000000000000000000000000606482015290519081900360840190fd5b6008805460ff191660029081179091555460048054604080517f42966c680000000000000000000000000000000000000000000000000000000081529283019190915251600160a060020a03909216916342966c689160248082019260009290919082900301818387803b1580156107a657600080fd5b505af11580156107ba573d6000803e3d6000fd5b503392505050ff5b6005805460408051602060026001851615610100026000190190941693909304601f810184900484028201840190925281815292918301828280156108485780601f1061081d57610100808354040283529160200191610848565b820191906000526020600020905b81548152906001019060200180831161082b57829003601f168201915b505050505081565b600054600160a060020a031681565b60065481565b600154600160a060020a031633146108c7576040805160e560020a62461bcd02815260206004820152601e60248201527f4f6e6c792074686520646f6e61746f722063616e2063616c6c20746869730000604482015290519081900360640190fd5b6007544211610920576040805160e560020a62461bcd02815260206004820152601960248201527f31207765656b20686173206e6f74207061737365642079657400000000000000604482015290519081900360640190fd5b60025460015460048054604080517fa9059cbb000000000000000000000000000000000000000000000000000000008152600160a060020a0394851693810193909352602483019190915251919092169163a9059cbb9160448083019260209291908290030181600087803b1580156104d557600080fd5b60075481565b60085460ff1681565b6000808060085460ff1660028111156109bc57fe5b146109ff576040805160e560020a62461bcd02815260206004820152600e6024820152600080516020610a8e833981519152604482015290519081900360640190fd5b600054600160a060020a03163314610a61576040805160e560020a62461bcd02815260206004820152601e60248201527f4f6e6c7920746f6b656e206f776e65722063616e2063616c6c20746869730000604482015290519081900360640190fd5b50506008805460ff1916600217905562093a804201600755600190565b600254600160a060020a03168156fe496e76616c69642073746174652e000000000000000000000000000000000000a165627a7a72305820537114a0f6b7f09b472e26f6dd24ccb225b1942f50bba776cc719d5d792fbf9b0029",
  "source": "pragma solidity ^0.5.0;\nimport \"./NewToken.sol\";\nimport \"./YallaGiveAdmins.sol\";\n// TODO : I've set selfdestruct with msg.sender temporary to test \ncontract DonationEscrow {\n    // should we use wallet contract as a datatype instead of address\n    address   public charityOwner;\n    address public donator;\n    NewToken public token;\n    YallaGiveAdmins public YgAdmins;\n    uint public donatedValue;\n    string public proofOfPayment;\n    uint public startTime;\n    uint public releaseTime;\n    enum State { Pending, Approved, Rejected }\n    State public state;\n\n    constructor(address _donator,address  _charityOwner, NewToken _token, YallaGiveAdmins _YgAdmins, uint _donatedValue, string memory _proofOfPayment) public {\n        charityOwner = msg.sender;\n        donator = _donator;\n        charityOwner = _charityOwner;\n        token = _token;\n        YgAdmins = _YgAdmins;\n        donatedValue = _donatedValue;\n        proofOfPayment = _proofOfPayment;\n        startTime = now;\n        releaseTime = now + 1 weeks;\n    }\n\n    modifier inState(State _state) {\n        require(state == _state, \"Invalid state.\");\n        _;\n    }\n    \n    modifier onlyCharityOwner() {\n        require(msg.sender == charityOwner, \"Only token owner can call this\");\n        _;\n    }\n    \n    modifier onlyYgAdmin() {\n        require (YgAdmins.isYgAdmin(msg.sender), \"Only a YallaGive Admin can call this\");\n        _;\n    }\n\n    function validateDonation() public inState(State.Pending) onlyCharityOwner {\n        state = State.Approved;\n        token.transfer(donator, donatedValue);\n        selfdestruct(msg.sender);\n    }\n\n    function rejectDonation() public inState(State.Pending) onlyCharityOwner returns(bool) {\n        state = State.Rejected;\n        releaseTime= now + 1 weeks;\n        return true;\n    }\n\n    function adminValidation() public inState(State.Rejected) onlyYgAdmin {\n        state = State.Approved;\n        token.transfer(donator, donatedValue);\n        selfdestruct(msg.sender);\n    }\n\n    function adminRejection() public inState(State.Rejected) onlyYgAdmin {\n        state = State.Rejected;\n        token.burn(donatedValue);\n        selfdestruct(msg.sender);\n    }\n    \n    function releaseTokens() public/* inState(State.Pending)*/ {\n        require(msg.sender == donator, \"Only the donator can call this\");\n        require(now > releaseTime, \"1 week has not passed yet\");\n        token.transfer(donator, donatedValue);\n        selfdestruct(msg.sender);\n    }\n\n    // function destroy(address owner) internal returns(bool) {\n    //     selfdestruct(owner);\n    // }\n}",
  "sourcePath": "/home/youssef/Desktop/yallagive/tokenbackend/contracts/DonationEscrow.sol",
  "compiler": {
    "name": "solc",
    "version": "0.5.0+commit.1d4f565a.Linux.g++"
  },
  "schemaVersion": "3.0.16",
  "updatedAt": "2019-10-23T23:21:40.731Z",
  "devdoc": {
    "methods": {}
  },
  "userdoc": {
    "methods": {}
  }
}