{
  "contractName": "NewToken",
  "abi": [
    {
      "constant": true,
      "inputs": [],
      "name": "name",
      "outputs": [
        {
          "name": "",
          "type": "string"
        }
      ],
      "payable": false,
      "stateMutability": "view",
      "type": "function"
    },
    {
      "constant": false,
      "inputs": [
        {
          "name": "spender",
          "type": "address"
        },
        {
          "name": "value",
          "type": "uint256"
        }
      ],
      "name": "approve",
      "outputs": [
        {
          "name": "",
          "type": "bool"
        }
      ],
      "payable": false,
      "stateMutability": "nonpayable",
      "type": "function"
    },
    {
      "constant": true,
      "inputs": [],
      "name": "totalSupply",
      "outputs": [
        {
          "name": "",
          "type": "uint256"
        }
      ],
      "payable": false,
      "stateMutability": "view",
      "type": "function"
    },
    {
      "constant": false,
      "inputs": [
        {
          "name": "sender",
          "type": "address"
        },
        {
          "name": "recipient",
          "type": "address"
        },
        {
          "name": "amount",
          "type": "uint256"
        }
      ],
      "name": "transferFrom",
      "outputs": [
        {
          "name": "",
          "type": "bool"
        }
      ],
      "payable": false,
      "stateMutability": "nonpayable",
      "type": "function"
    },
    {
      "constant": true,
      "inputs": [],
      "name": "decimals",
      "outputs": [
        {
          "name": "",
          "type": "uint8"
        }
      ],
      "payable": false,
      "stateMutability": "view",
      "type": "function"
    },
    {
      "constant": true,
      "inputs": [],
      "name": "cap",
      "outputs": [
        {
          "name": "",
          "type": "uint256"
        }
      ],
      "payable": false,
      "stateMutability": "view",
      "type": "function"
    },
    {
      "constant": false,
      "inputs": [
        {
          "name": "spender",
          "type": "address"
        },
        {
          "name": "addedValue",
          "type": "uint256"
        }
      ],
      "name": "increaseAllowance",
      "outputs": [
        {
          "name": "",
          "type": "bool"
        }
      ],
      "payable": false,
      "stateMutability": "nonpayable",
      "type": "function"
    },
    {
      "constant": false,
      "inputs": [
        {
          "name": "account",
          "type": "address"
        },
        {
          "name": "amount",
          "type": "uint256"
        }
      ],
      "name": "mint",
      "outputs": [
        {
          "name": "",
          "type": "bool"
        }
      ],
      "payable": false,
      "stateMutability": "nonpayable",
      "type": "function"
    },
    {
      "constant": false,
      "inputs": [
        {
          "name": "amount",
          "type": "uint256"
        }
      ],
      "name": "burn",
      "outputs": [],
      "payable": false,
      "stateMutability": "nonpayable",
      "type": "function"
    },
    {
      "constant": true,
      "inputs": [],
      "name": "YgAdmins",
      "outputs": [
        {
          "name": "",
          "type": "address"
        }
      ],
      "payable": false,
      "stateMutability": "view",
      "type": "function"
    },
    {
      "constant": true,
      "inputs": [
        {
          "name": "account",
          "type": "address"
        }
      ],
      "name": "balanceOf",
      "outputs": [
        {
          "name": "",
          "type": "uint256"
        }
      ],
      "payable": false,
      "stateMutability": "view",
      "type": "function"
    },
    {
      "constant": false,
      "inputs": [
        {
          "name": "account",
          "type": "address"
        },
        {
          "name": "amount",
          "type": "uint256"
        }
      ],
      "name": "burnFrom",
      "outputs": [],
      "payable": false,
      "stateMutability": "nonpayable",
      "type": "function"
    },
    {
      "constant": true,
      "inputs": [],
      "name": "owner",
      "outputs": [
        {
          "name": "",
          "type": "address"
        }
      ],
      "payable": false,
      "stateMutability": "view",
      "type": "function"
    },
    {
      "constant": true,
      "inputs": [],
      "name": "symbol",
      "outputs": [
        {
          "name": "",
          "type": "string"
        }
      ],
      "payable": false,
      "stateMutability": "view",
      "type": "function"
    },
    {
      "constant": false,
      "inputs": [
        {
          "name": "account",
          "type": "address"
        }
      ],
      "name": "addMinter",
      "outputs": [],
      "payable": false,
      "stateMutability": "nonpayable",
      "type": "function"
    },
    {
      "constant": false,
      "inputs": [],
      "name": "renounceMinter",
      "outputs": [],
      "payable": false,
      "stateMutability": "nonpayable",
      "type": "function"
    },
    {
      "constant": false,
      "inputs": [
        {
          "name": "spender",
          "type": "address"
        },
        {
          "name": "subtractedValue",
          "type": "uint256"
        }
      ],
      "name": "decreaseAllowance",
      "outputs": [
        {
          "name": "",
          "type": "bool"
        }
      ],
      "payable": false,
      "stateMutability": "nonpayable",
      "type": "function"
    },
    {
      "constant": false,
      "inputs": [
        {
          "name": "recipient",
          "type": "address"
        },
        {
          "name": "amount",
          "type": "uint256"
        }
      ],
      "name": "transfer",
      "outputs": [
        {
          "name": "",
          "type": "bool"
        }
      ],
      "payable": false,
      "stateMutability": "nonpayable",
      "type": "function"
    },
    {
      "constant": true,
      "inputs": [
        {
          "name": "account",
          "type": "address"
        }
      ],
      "name": "isMinter",
      "outputs": [
        {
          "name": "",
          "type": "bool"
        }
      ],
      "payable": false,
      "stateMutability": "view",
      "type": "function"
    },
    {
      "constant": true,
      "inputs": [],
      "name": "_attaToken",
      "outputs": [
        {
          "name": "",
          "type": "address"
        }
      ],
      "payable": false,
      "stateMutability": "view",
      "type": "function"
    },
    {
      "constant": true,
      "inputs": [
        {
          "name": "owner",
          "type": "address"
        },
        {
          "name": "spender",
          "type": "address"
        }
      ],
      "name": "allowance",
      "outputs": [
        {
          "name": "",
          "type": "uint256"
        }
      ],
      "payable": false,
      "stateMutability": "view",
      "type": "function"
    },
    {
      "inputs": [
        {
          "name": "name",
          "type": "string"
        },
        {
          "name": "symbol",
          "type": "string"
        },
        {
          "name": "decimals",
          "type": "uint8"
        },
        {
          "name": "cap",
          "type": "uint256"
        },
        {
          "name": "rate",
          "type": "uint256"
        },
        {
          "name": "_owner",
          "type": "address"
        },
        {
          "name": "token",
          "type": "address"
        },
        {
          "name": "_YgAdmins",
          "type": "address"
        }
      ],
      "payable": false,
      "stateMutability": "nonpayable",
      "type": "constructor"
    },
    {
      "anonymous": false,
      "inputs": [
        {
          "indexed": true,
          "name": "account",
          "type": "address"
        }
      ],
      "name": "MinterAdded",
      "type": "event"
    },
    {
      "anonymous": false,
      "inputs": [
        {
          "indexed": true,
          "name": "account",
          "type": "address"
        }
      ],
      "name": "MinterRemoved",
      "type": "event"
    },
    {
      "anonymous": false,
      "inputs": [
        {
          "indexed": true,
          "name": "from",
          "type": "address"
        },
        {
          "indexed": true,
          "name": "to",
          "type": "address"
        },
        {
          "indexed": false,
          "name": "value",
          "type": "uint256"
        }
      ],
      "name": "Transfer",
      "type": "event"
    },
    {
      "anonymous": false,
      "inputs": [
        {
          "indexed": true,
          "name": "owner",
          "type": "address"
        },
        {
          "indexed": true,
          "name": "spender",
          "type": "address"
        },
        {
          "indexed": false,
          "name": "value",
          "type": "uint256"
        }
      ],
      "name": "Approval",
      "type": "event"
    },
    {
      "constant": true,
      "inputs": [],
      "name": "rate",
      "outputs": [
        {
          "name": "",
          "type": "uint256"
        }
      ],
      "payable": false,
      "stateMutability": "view",
      "type": "function"
    },
    {
      "constant": false,
      "inputs": [
        {
          "name": "attaAmount",
          "type": "uint256"
        }
      ],
      "name": "buyWithAttaCoin",
      "outputs": [
        {
          "name": "",
          "type": "bool"
        }
      ],
      "payable": false,
      "stateMutability": "nonpayable",
      "type": "function"
    },
    {
      "constant": false,
      "inputs": [
        {
          "name": "amount",
          "type": "uint256"
        },
        {
          "name": "PrOfPayment",
          "type": "string"
        }
      ],
      "name": "buyOffChain",
      "outputs": [
        {
          "name": "",
          "type": "bool"
        }
      ],
      "payable": false,
      "stateMutability": "nonpayable",
      "type": "function"
    }
  ],
  "bytecode": "0x60806040523480156200001157600080fd5b5060405162002d4338038062002d4383398101806040526101008110156200003857600080fd5b8101908080516401000000008111156200005157600080fd5b820160208101848111156200006557600080fd5b81516401000000008111828201871017156200008057600080fd5b505092919060200180516401000000008111156200009d57600080fd5b82016020810184811115620000b157600080fd5b8151640100000000811182820187101715620000cc57600080fd5b505060208083015160408401516060850151608086015160a087015160c0909701518a5196995093975091959094919390929186918a918a918a9162000119916000919086019062000584565b5081516200012f90600190602085019062000584565b506002805460ff191660ff92909216919091179055506200015b905033640100000000620003cb810204565b60008111620001cb57604080517f08c379a000000000000000000000000000000000000000000000000000000000815260206004820152601560248201527f45524332304361707065643a2063617020697320300000000000000000000000604482015290519081900360640190fd5b6007556001600855600084116200024357604080517f08c379a000000000000000000000000000000000000000000000000000000000815260206004820152601a60248201527f20747261646520636f6e74726163743a20726174652069732030000000000000604482015290519081900360640190fd5b600160a060020a0383161515620002e157604080517f08c379a000000000000000000000000000000000000000000000000000000000815260206004820152602b60248201527f20747261646520636f6e74726163743a2077616c6c657420697320746865207a60448201527f65726f2061646472657373000000000000000000000000000000000000000000606482015290519081900360840190fd5b600160a060020a03821615156200037f57604080517f08c379a000000000000000000000000000000000000000000000000000000000815260206004820152602a60248201527f20747261646520636f6e74726163743a20746f6b656e20697320746865207a6560448201527f726f206164647265737300000000000000000000000000000000000000000000606482015290519081900360840190fd5b60098054600160a060020a0319908116600160a060020a0394851617909155600c94909455600a8054851693831693909317909255600b80549093169116179055506200062992505050565b620003e6600682640100000000620017366200041d82021704565b604051600160a060020a038216907f6ae172837ea30b801fbfcdd4108aa1d5bf8ff775444fd70256b44e6bf3dfc3f690600090a250565b620004328282640100000000620004c4810204565b156200049f57604080517f08c379a000000000000000000000000000000000000000000000000000000000815260206004820152601f60248201527f526f6c65733a206163636f756e7420616c72656164792068617320726f6c6500604482015290519081900360640190fd5b600160a060020a0316600090815260209190915260409020805460ff19166001179055565b6000600160a060020a03821615156200056457604080517f08c379a000000000000000000000000000000000000000000000000000000000815260206004820152602260248201527f526f6c65733a206163636f756e7420697320746865207a65726f20616464726560448201527f7373000000000000000000000000000000000000000000000000000000000000606482015290519081900360840190fd5b50600160a060020a03166000908152602091909152604090205460ff1690565b828054600181600116156101000203166002900490600052602060002090601f016020900481019282601f10620005c757805160ff1916838001178555620005f7565b82800160010185558215620005f7579182015b82811115620005f7578251825591602001919060010190620005da565b506200060592915062000609565b5090565b6200062691905b8082111562000605576000815560010162000610565b90565b61270a80620006396000396000f3fe608060405260043610620001565763ffffffff7c010000000000000000000000000000000000000000000000000000000060003504166306fdde0381146200015b578063095ea7b314620001eb57806316ce8754146200023c57806318160ddd146200026a57806323b872dd14620002945780632c4e722e14620002db578063313ce56714620002f3578063355274ea146200032157806339509351146200033957806340c10f19146200037657806342966c6814620003b3578063546ac72814620003e35780636cf8ac0d146200041757806370a0823114620004d857806379cc6790146200050f5780638da5cb5b146200054c57806395d89b411462000564578063983b2d56146200057c5780639865027514620005b3578063a457c2d714620005cb578063a9059cbb1462000608578063aa271e1a1462000645578063af805f54146200067c578063dd62ed3e1462000694575b600080fd5b3480156200016857600080fd5b5062000173620006d3565b6040805160208082528351818301528351919283929083019185019080838360005b83811015620001af57818101518382015260200162000195565b50505050905090810190601f168015620001dd5780820380516001836020036101000a031916815260200191505b509250505060405180910390f35b348015620001f857600080fd5b5062000228600480360360408110156200021157600080fd5b50600160a060020a0381351690602001356200076d565b604080519115158252519081900360200190f35b3480156200024957600080fd5b5062000228600480360360208110156200026257600080fd5b503562000786565b3480156200027757600080fd5b50620002826200089a565b60408051918252519081900360200190f35b348015620002a157600080fd5b506200022860048036036060811015620002ba57600080fd5b50600160a060020a03813581169160208101359091169060400135620008a0565b348015620002e857600080fd5b5062000282620008fd565b3480156200030057600080fd5b506200030b62000903565b6040805160ff9092168252519081900360200190f35b3480156200032e57600080fd5b50620002826200090c565b3480156200034657600080fd5b5062000228600480360360408110156200035f57600080fd5b50600160a060020a03813516906020013562000912565b3480156200038357600080fd5b5062000228600480360360408110156200039c57600080fd5b50600160a060020a03813516906020013562000951565b348015620003c057600080fd5b50620003e160048036036020811015620003d957600080fd5b5035620009e7565b005b348015620003f057600080fd5b50620003fb620009f6565b60408051600160a060020a039092168252519081900360200190f35b3480156200042457600080fd5b5062000228600480360360408110156200043d57600080fd5b813591908101906040810160208201356401000000008111156200046057600080fd5b8201836020820111156200047357600080fd5b803590602001918460018302840111640100000000831117156200049657600080fd5b91908080601f01602080910402602001604051908101604052809392919081815260200183838082843760009201919091525092955062000a05945050505050565b348015620004e557600080fd5b506200028260048036036020811015620004fe57600080fd5b5035600160a060020a031662000b00565b3480156200051c57600080fd5b50620003e1600480360360408110156200053557600080fd5b50600160a060020a03813516906020013562000b1b565b3480156200055957600080fd5b50620003fb62000b2b565b3480156200057157600080fd5b506200017362000b3a565b3480156200058957600080fd5b50620003e160048036036020811015620005a257600080fd5b5035600160a060020a031662000b9d565b348015620005c057600080fd5b50620003e162000c30565b348015620005d857600080fd5b506200022860048036036040811015620005f157600080fd5b50600160a060020a03813516906020013562000c3d565b3480156200061557600080fd5b5062000228600480360360408110156200062e57600080fd5b50600160a060020a03813516906020013562000c7c565b3480156200065257600080fd5b5062000228600480360360208110156200066b57600080fd5b5035600160a060020a031662000c8b565b3480156200068957600080fd5b50620003fb62000ca0565b348015620006a157600080fd5b506200028260048036036040811015620006ba57600080fd5b50600160a060020a038135811691602001351662000caf565b60008054604080516020601f6002600019610100600188161502019095169490940493840181900481028201810190925282815260609390929091830182828015620007635780601f10620007375761010080835404028352916020019162000763565b820191906000526020600020905b8154815290600101906020018083116200074557829003601f168201915b5050505050905090565b60006200077c33848462000cda565b5060015b92915050565b600954604080517fdd62ed3e00000000000000000000000000000000000000000000000000000000815233600482015230602482015290516000928492600160a060020a039091169163dd62ed3e91604480820192602092909190829003018186803b158015620007f657600080fd5b505afa1580156200080b573d6000803e3d6000fd5b505050506040513d60208110156200082257600080fd5b505110156200087b576040805160e560020a62461bcd02815260206004820152601660248201527f4d6f72652046756e647320617265206e65656465642e00000000000000000000604482015290519081900360640190fd5b62000887338362000e49565b620008928262000edb565b506001919050565b60055490565b6000620008af84848462000f7a565b600160a060020a038416600090815260046020908152604080832033808552925290912054620008f3918691620008ed908663ffffffff6200114616565b62000cda565b5060019392505050565b600c5490565b60025460ff1690565b60075490565b336000818152600460209081526040808320600160a060020a038716845290915281205490916200077c918590620008ed908663ffffffff620011a716565b60006200095e3362000c8b565b1515620009db576040805160e560020a62461bcd02815260206004820152603060248201527f4d696e746572526f6c653a2063616c6c657220646f6573206e6f74206861766560448201527f20746865204d696e74657220726f6c6500000000000000000000000000000000606482015290519081900360840190fd5b6200077c83836200120c565b620009f333826200128e565b50565b600b54600160a060020a031681565b600a54600b5460009182913391600160a060020a0390811691309116878762000a2d62001a23565b600160a060020a038088168252868116602080840191909152868216604084015290851660608301526080820184905260c060a083018181528451918401919091528351909160e08401919085019080838360005b8381101562000a9c57818101518382015260200162000a82565b50505050905090810190601f16801562000aca5780820380516001836020036101000a031916815260200191505b50975050505050505050604051809103906000f08015801562000af1573d6000803e3d6000fd5b509050620008f3818562000e49565b600160a060020a031660009081526003602052604090205490565b62000b278282620013af565b5050565b600a54600160a060020a031681565b60018054604080516020601f60026000196101008789161502019095169490940493840181900481028201810190925282815260609390929091830182828015620007635780601f10620007375761010080835404028352916020019162000763565b62000ba83362000c8b565b151562000c25576040805160e560020a62461bcd02815260206004820152603060248201527f4d696e746572526f6c653a2063616c6c657220646f6573206e6f74206861766560448201527f20746865204d696e74657220726f6c6500000000000000000000000000000000606482015290519081900360840190fd5b620009f381620013f9565b62000c3b3362001443565b565b336000818152600460209081526040808320600160a060020a038716845290915281205490916200077c918590620008ed908663ffffffff6200114616565b60006200077c33848462000f7a565b60006200078060068363ffffffff6200148d16565b600954600160a060020a031681565b600160a060020a03918216600090815260046020908152604080832093909416825291909152205490565b600160a060020a038316151562000d60576040805160e560020a62461bcd028152602060048201526024808201527f45524332303a20617070726f76652066726f6d20746865207a65726f2061646460448201527f7265737300000000000000000000000000000000000000000000000000000000606482015290519081900360840190fd5b600160a060020a038216151562000de7576040805160e560020a62461bcd02815260206004820152602260248201527f45524332303a20617070726f766520746f20746865207a65726f20616464726560448201527f7373000000000000000000000000000000000000000000000000000000000000606482015290519081900360840190fd5b600160a060020a03808416600081815260046020908152604080832094871680845294825291829020859055815185815291517f8c5be1e5ebec7d5bd14f71427d1e84f3dd0314c0f7b2291e5b200ac8c7c3b9259281900390910190a3505050565b600880546001019081905562000e60838362001536565b600062000e6d8362001615565b905062000e7b84826200162e565b50600854811462000ed6576040805160e560020a62461bcd02815260206004820152601f60248201527f5265656e7472616e637947756172643a207265656e7472616e742063616c6c00604482015290519081900360640190fd5b505050565b600954600a54604080517fa9059cbb000000000000000000000000000000000000000000000000000000008152600160a060020a039283166004820152602481018590529051919092169163a9059cbb9160448083019260209291908290030181600087803b15801562000f4e57600080fd5b505af115801562000f63573d6000803e3d6000fd5b505050506040513d602081101562000ed657600080fd5b600160a060020a038316151562001001576040805160e560020a62461bcd02815260206004820152602560248201527f45524332303a207472616e736665722066726f6d20746865207a65726f20616460448201527f6472657373000000000000000000000000000000000000000000000000000000606482015290519081900360840190fd5b600160a060020a038216151562001088576040805160e560020a62461bcd02815260206004820152602360248201527f45524332303a207472616e7366657220746f20746865207a65726f206164647260448201527f6573730000000000000000000000000000000000000000000000000000000000606482015290519081900360840190fd5b600160a060020a038316600090815260036020526040902054620010b3908263ffffffff6200114616565b600160a060020a038085166000908152600360205260408082209390935590841681522054620010ea908263ffffffff620011a716565b600160a060020a0380841660008181526003602090815260409182902094909455805185815290519193928716927fddf252ad1be2c89b69c2b068fc378daa952ba7f163c4a11628f55a4df523b3ef92918290030190a3505050565b600082821115620011a1576040805160e560020a62461bcd02815260206004820152601e60248201527f536166654d6174683a207375627472616374696f6e206f766572666c6f770000604482015290519081900360640190fd5b50900390565b60008282018381101562001205576040805160e560020a62461bcd02815260206004820152601b60248201527f536166654d6174683a206164646974696f6e206f766572666c6f770000000000604482015290519081900360640190fd5b9392505050565b6007546200122b826200121e6200089a565b9063ffffffff620011a716565b111562001282576040805160e560020a62461bcd02815260206004820152601960248201527f45524332304361707065643a2063617020657863656564656400000000000000604482015290519081900360640190fd5b62000b2782826200163a565b600160a060020a038216151562001315576040805160e560020a62461bcd02815260206004820152602160248201527f45524332303a206275726e2066726f6d20746865207a65726f2061646472657360448201527f7300000000000000000000000000000000000000000000000000000000000000606482015290519081900360840190fd5b6005546200132a908263ffffffff6200114616565b600555600160a060020a03821660009081526003602052604090205462001358908263ffffffff6200114616565b600160a060020a0383166000818152600360209081526040808320949094558351858152935191937fddf252ad1be2c89b69c2b068fc378daa952ba7f163c4a11628f55a4df523b3ef929081900390910190a35050565b620013bb82826200128e565b600160a060020a03821660009081526004602090815260408083203380855292529091205462000b27918491620008ed908563ffffffff6200114616565b6200140c60068263ffffffff6200173616565b604051600160a060020a038216907f6ae172837ea30b801fbfcdd4108aa1d5bf8ff775444fd70256b44e6bf3dfc3f690600090a250565b6200145660068263ffffffff620017bd16565b604051600160a060020a038216907fe94479a9f7e1952cc78f2d6baab678adc1b772d936c6583def489e524cb6669290600090a250565b6000600160a060020a038216151562001516576040805160e560020a62461bcd02815260206004820152602260248201527f526f6c65733a206163636f756e7420697320746865207a65726f20616464726560448201527f7373000000000000000000000000000000000000000000000000000000000000606482015290519081900360840190fd5b50600160a060020a03166000908152602091909152604090205460ff1690565b600160a060020a0382161515620015bd576040805160e560020a62461bcd02815260206004820152602f60248201527f547261646520636f6e74726163743a2062656e6566696369617279206973207460448201527f6865207a65726f20616464726573730000000000000000000000000000000000606482015290519081900360840190fd5b80151562000b27576040805160e560020a62461bcd02815260206004820152601b60248201527f547261646520636f6e74726163743a20416d6f756e7420697320300000000000604482015290519081900360640190fd5b600062000780600c54836200186890919063ffffffff16565b62000b27828262001908565b600160a060020a03821615156200169b576040805160e560020a62461bcd02815260206004820152601f60248201527f45524332303a206d696e7420746f20746865207a65726f206164647265737300604482015290519081900360640190fd5b600554620016b0908263ffffffff620011a716565b600555600160a060020a038216600090815260036020526040902054620016de908263ffffffff620011a716565b600160a060020a03831660008181526003602090815260408083209490945583518581529351929391927fddf252ad1be2c89b69c2b068fc378daa952ba7f163c4a11628f55a4df523b3ef9281900390910190a35050565b6200174282826200148d565b1562001798576040805160e560020a62461bcd02815260206004820152601f60248201527f526f6c65733a206163636f756e7420616c72656164792068617320726f6c6500604482015290519081900360640190fd5b600160a060020a0316600090815260209190915260409020805460ff19166001179055565b620017c982826200148d565b151562001846576040805160e560020a62461bcd02815260206004820152602160248201527f526f6c65733a206163636f756e7420646f6573206e6f74206861766520726f6c60448201527f6500000000000000000000000000000000000000000000000000000000000000606482015290519081900360840190fd5b600160a060020a0316600090815260209190915260409020805460ff19169055565b60008215156200187b5750600062000780565b8282028284828115156200188b57fe5b041462001205576040805160e560020a62461bcd02815260206004820152602160248201527f536166654d6174683a206d756c7469706c69636174696f6e206f766572666c6f60448201527f7700000000000000000000000000000000000000000000000000000000000000606482015290519081900360840190fd5b600954604080517f40c10f19000000000000000000000000000000000000000000000000000000008152600160a060020a03858116600483015260248201859052915191909216916340c10f199160448083019260209291908290030181600087803b1580156200197857600080fd5b505af11580156200198d573d6000803e3d6000fd5b505050506040513d6020811015620019a457600080fd5b5051151562000b27576040805160e560020a62461bcd02815260206004820152602560248201527f4d696e74656420747261646520636f6e74726163743a206d696e74696e67206660448201527f61696c6564000000000000000000000000000000000000000000000000000000606482015290519081900360840190fd5b604051610caa8062001a358339019056fe608060405234801561001057600080fd5b50604051610caa380380610caa833981018060405260c081101561003357600080fd5b8151602083015160408401516060850151608086015160a0870180519597949693959294919382019264010000000081111561006e57600080fd5b8201602081018481111561008157600080fd5b815164010000000081118282018710171561009b57600080fd5b50506000805460018054600160a060020a038d8116600160a060020a0319928316179092558b82169281163317811692909217909255600280548a841690831617905560038054928916929091169190911790556004859055805190935061010c9250600591506020840190610127565b505042600681905562093a8001600755506101c29350505050565b828054600181600116156101000203166002900490600052602060002090601f016020900481019282601f1061016857805160ff1916838001178555610195565b82800160010185558215610195579182015b8281111561019557825182559160200191906001019061017a565b506101a19291506101a5565b5090565b6101bf91905b808211156101a157600081556001016101ab565b90565b610ad9806101d16000396000f3fe6080604052600436106100cf5763ffffffff7c010000000000000000000000000000000000000000000000000000000060003504166302d2003e81146100d45780630dc65a121461010557806314ff4fc71461012c57806337142c5314610143578063546ac72814610158578063556bc9411461016d5780636711e62f146101825780636ecc75af1461020c57806378e9792514610221578063a96f866814610236578063b91d40011461024b578063c19d93fb14610260578063df1250bd14610299578063fc0c546a146102c2575b600080fd5b3480156100e057600080fd5b506100e96102d7565b60408051600160a060020a039092168252519081900360200190f35b34801561011157600080fd5b5061011a6102e6565b60408051918252519081900360200190f35b34801561013857600080fd5b506101416102ec565b005b34801561014f57600080fd5b50610141610505565b34801561016457600080fd5b506100e96105be565b34801561017957600080fd5b506101416105cd565b34801561018e57600080fd5b506101976107c2565b6040805160208082528351818301528351919283929083019185019080838360005b838110156101d15781810151838201526020016101b9565b50505050905090810190601f1680156101fe5780820380516001836020036101000a031916815260200191505b509250505060405180910390f35b34801561021857600080fd5b506100e9610850565b34801561022d57600080fd5b5061011a61085f565b34801561024257600080fd5b50610141610865565b34801561025757600080fd5b5061011a610998565b34801561026c57600080fd5b5061027561099e565b6040518082600281111561028557fe5b60ff16815260200191505060405180910390f35b3480156102a557600080fd5b506102ae6109a7565b604080519115158252519081900360200190f35b3480156102ce57600080fd5b506100e9610a7e565b600154600160a060020a031681565b60045481565b60028060085460ff16600281111561030057fe5b14610343576040805160e560020a62461bcd02815260206004820152600e6024820152600080516020610a8e833981519152604482015290519081900360640190fd5b600354604080517fe01f2e0f0000000000000000000000000000000000000000000000000000000081523360048201529051600160a060020a039092169163e01f2e0f91602480820192602092909190829003018186803b1580156103a757600080fd5b505afa1580156103bb573d6000803e3d6000fd5b505050506040513d60208110156103d157600080fd5b5051151561044e576040805160e560020a62461bcd028152602060048201526024808201527f4f6e6c7920612059616c6c61476976652041646d696e2063616e2063616c6c2060448201527f7468697300000000000000000000000000000000000000000000000000000000606482015290519081900360840190fd5b6008805460ff19166001908117909155600254905460048054604080517fa9059cbb000000000000000000000000000000000000000000000000000000008152600160a060020a0394851693810193909352602483019190915251919092169163a9059cbb9160448083019260209291908290030181600087803b1580156104d557600080fd5b505af11580156104e9573d6000803e3d6000fd5b505050506040513d60208110156104ff57600080fd5b50339050ff5b60008060085460ff16600281111561051957fe5b1461055c576040805160e560020a62461bcd02815260206004820152600e6024820152600080516020610a8e833981519152604482015290519081900360640190fd5b600054600160a060020a0316331461044e576040805160e560020a62461bcd02815260206004820152601e60248201527f4f6e6c7920746f6b656e206f776e65722063616e2063616c6c20746869730000604482015290519081900360640190fd5b600354600160a060020a031681565b60028060085460ff1660028111156105e157fe5b14610624576040805160e560020a62461bcd02815260206004820152600e6024820152600080516020610a8e833981519152604482015290519081900360640190fd5b600354604080517fe01f2e0f0000000000000000000000000000000000000000000000000000000081523360048201529051600160a060020a039092169163e01f2e0f91602480820192602092909190829003018186803b15801561068857600080fd5b505afa15801561069c573d6000803e3d6000fd5b505050506040513d60208110156106b257600080fd5b5051151561072f576040805160e560020a62461bcd028152602060048201526024808201527f4f6e6c7920612059616c6c61476976652041646d696e2063616e2063616c6c2060448201527f7468697300000000000000000000000000000000000000000000000000000000606482015290519081900360840190fd5b6008805460ff191660029081179091555460048054604080517f42966c680000000000000000000000000000000000000000000000000000000081529283019190915251600160a060020a03909216916342966c689160248082019260009290919082900301818387803b1580156107a657600080fd5b505af11580156107ba573d6000803e3d6000fd5b503392505050ff5b6005805460408051602060026001851615610100026000190190941693909304601f810184900484028201840190925281815292918301828280156108485780601f1061081d57610100808354040283529160200191610848565b820191906000526020600020905b81548152906001019060200180831161082b57829003601f168201915b505050505081565b600054600160a060020a031681565b60065481565b600154600160a060020a031633146108c7576040805160e560020a62461bcd02815260206004820152601e60248201527f4f6e6c792074686520646f6e61746f722063616e2063616c6c20746869730000604482015290519081900360640190fd5b6007544211610920576040805160e560020a62461bcd02815260206004820152601960248201527f31207765656b20686173206e6f74207061737365642079657400000000000000604482015290519081900360640190fd5b60025460015460048054604080517fa9059cbb000000000000000000000000000000000000000000000000000000008152600160a060020a0394851693810193909352602483019190915251919092169163a9059cbb9160448083019260209291908290030181600087803b1580156104d557600080fd5b60075481565b60085460ff1681565b6000808060085460ff1660028111156109bc57fe5b146109ff576040805160e560020a62461bcd02815260206004820152600e6024820152600080516020610a8e833981519152604482015290519081900360640190fd5b600054600160a060020a03163314610a61576040805160e560020a62461bcd02815260206004820152601e60248201527f4f6e6c7920746f6b656e206f776e65722063616e2063616c6c20746869730000604482015290519081900360640190fd5b50506008805460ff1916600217905562093a804201600755600190565b600254600160a060020a03168156fe496e76616c69642073746174652e000000000000000000000000000000000000a165627a7a72305820537114a0f6b7f09b472e26f6dd24ccb225b1942f50bba776cc719d5d792fbf9b0029a165627a7a72305820caea28dc286875556f53f352b13fe12f521c999931e55d301668577058a95b5e0029",
  "source": "pragma solidity ^0.5.0;\nimport \"openzeppelin-solidity/contracts/token/ERC20/ERC20Detailed.sol\";\nimport \"openzeppelin-solidity/contracts/token/ERC20/ERC20Capped.sol\";\nimport 'openzeppelin-solidity/contracts/token/ERC20/ERC20Burnable.sol';\n\n/** we will make it in a sperated contract */\nimport \"openzeppelin-solidity/contracts/math/SafeMath.sol\";\nimport \"openzeppelin-solidity/contracts/utils/ReentrancyGuard.sol\";\n// import \"openzeppelin-solidity/contracts/token/ERC20/IERC20.sol\";\n\n// import \"openzeppelin-solidity/contracts/token/ERC20/SafeERC20.sol\";\n// import \"./Ownable.sol\";\n\nimport './AtaaToken.sol';\nimport './TokenFactory.sol';\nimport './YallaGiveAdmins.sol';\nimport './DonationEscrow.sol';\n// import './TokenTrade.sol';\n\n// the contract need to inhert ERC20Capped which internal inhirt ERC20Mintable so you won't do that \ncontract NewToken is ERC20Detailed,ERC20Capped, ERC20Burnable, ReentrancyGuard /*, TokenTrade*/ {\n\n       using SafeMath for uint256;\n    // using SafeERC20 for IERC20;\n\n    // The token being sold with\n     AtaaToken public _attaToken;\n   address  public owner;\n YallaGiveAdmins public YgAdmins;\n    // Address where funds are collected\n\n    // How many token units a buyer gets per wei.\n    // The rate is the conversion between wei and the smallest and indivisible token unit.\n    // So, if you are using a rate of 1 with a ERC20Detailed token with 3 decimals called TOK\n    // 1 wei will give you 1 unit, or 0.001 TOK.\n    uint256 private _rate;\n\n\n       // uint256 public tokenPrice;      // @param token's price related to AtaaToken.\n constructor(string memory name, string memory symbol, uint8 decimals, uint256 cap, uint256 rate ,address _owner ,  AtaaToken token,YallaGiveAdmins _YgAdmins) \n        ERC20Detailed(name,symbol,decimals) ERC20Capped(cap)    public\n        {\n              //  tokenPrice = _rate;\n         require(rate > 0, \" trade contract: rate is 0\");\n        require(_owner != address(0), \" trade contract: wallet is the zero address\");\n        require(address(token) != address(0), \" trade contract: token is the zero address\");\n        _attaToken=token;\n        _rate = rate;\n        owner = _owner;\n        YgAdmins = _YgAdmins;\n  \n    }\n\n    /**\n     * @dev low level token purchase ***DO NOT OVERRIDE***\n     * This function has a non-reentrancy guard, so it shouldn't be called by\n     * another `nonReentrant` function.\n     * @param beneficiary Recipient of the token purchase\n     */\n    function _buyTokens(address beneficiary, uint256 attaAmount) internal nonReentrant  {\n        _preValidatePurchase(beneficiary, attaAmount);\n\n        // calculate token amount to be created\n        uint256 tokens = _getTokenAmount(attaAmount);\n\n        // update state\n        //_weiRaised = _weiRaised.add(attaAmount);\n\n        _processPurchase(beneficiary, tokens);\n        // emit TokensPurchased(msg.sender, beneficiary, attaAmount, tokens);\n\n      \n    }\n    function _preValidatePurchase(address beneficiary, uint256 amount) internal view {\n        require(beneficiary != address(0), \"Trade contract: beneficiary is the zero address\");\n        require(amount != 0, \"Trade contract: Amount is 0\");\n    }\n\n    /**\n     * @dev Validation of an executed purchase. Observe state and use revert statements to undo rollback when valid\n     * conditions are not met.\n     * @param beneficiary Address performing the token purchase\n     * @param attaAmount Value in wei involved in the purchase\n     */\n    function _postValidatePurchase(address beneficiary, uint256 attaAmount) internal view {\n        // solhint-disable-previous-line no-empty-blocks\n    }\n\n     /**\n     * @dev Overrides delivery by minting tokens upon purchase.\n     * @param beneficiary Token purchaser\n     * @param tokenAmount Number of tokens to be minted\n     */\n    function _deliverTokens(address beneficiary, uint256 tokenAmount) internal {\n        // Potentially dangerous assumption about the type of the token.\n        require(\n            _attaToken.mint(beneficiary, tokenAmount),\n                \"Minted trade contract: minting failed\"\n        );\n    }\n    function _transferAttaTokens( uint256 tokenAmount) internal {\n        _attaToken.transfer(owner, tokenAmount);\n    }\n\n    /**\n     * @dev Executed when a purchase has been validated and is ready to be executed. Doesn't necessarily emit/send\n     * tokens.\n     * @param beneficiary Address receiving the tokens\n     * @param tokenAmount Number of tokens to be purchased\n     */\n    function _processPurchase(address beneficiary, uint256 tokenAmount) internal {\n        _deliverTokens(beneficiary, tokenAmount);\n    }\n\n    /**\n     * @dev Override for extensions that require an internal state to check for validity (current user contributions,\n     * etc.)\n     * @param beneficiary Address receiving the tokens\n     * @param attaAmount Value in wei involved in the purchase\n     */\n    function _updatePurchasingState(address beneficiary, uint256 attaAmount) internal {\n        // solhint-disable-previous-line no-empty-blocks\n    }\n\n    /**\n     * @dev Override to extend the way in which ether is converted to tokens.\n     * @param attaAmount Value in wei to be converted into tokens\n     * @return Number of tokens that can be purchased with the specified _attaAmount\n     */\n    function _getTokenAmount(uint256 attaAmount) internal view returns (uint256) {\n        return attaAmount.mul(_rate);\n    }\n\n//     /**\n//      * @dev Determines how ETH is stored/forwarded on purchases.\n//      */\n//     function _forwardFunds() internal {\n//         _attaToken.transfer(msg.value);\n//     }\n      function rate() public view returns (uint256) {\n            return _rate;\n      }\n\n      function buyWithAttaCoin( uint256 attaAmount) public returns (bool){\n      require(_attaToken.allowance(msg.sender, address(this)) >= attaAmount, \"More Funds are needed.\");\n      _buyTokens(msg.sender,  attaAmount);\n      _transferAttaTokens(attaAmount);\n      return true;\n\n      }\n      /**we will assume that the amount that the user sends is true otherwise he might lose his funds.\n       if there is any issue it will be handled by the team manually wither by refund or anything else */\n      function buyOffChain( uint256 amount , string memory PrOfPayment) public returns (bool){\n   // create new escrow \n   //address _donator,address _charityOwner, NewToken _token, YallaGiveAdmins _YgAdmins, uint _donatedValue, string memory _proofOfPayment\n   address escrow = address(new DonationEscrow(msg.sender,owner,this,YgAdmins,amount,PrOfPayment));\n    _buyTokens(escrow,  amount);\n    return true;\n   // adjust the amount \n   // send the toekn to escrow\n\n\n      }\n\n}\n\n// you don't have to implement these function , you can inhirt  ERC20Detailed and the contract will do all te work",
  "sourcePath": "/home/youssef/Desktop/yallagive/tokenbackend/contracts/NewToken.sol",
  "compiler": {
    "name": "solc",
    "version": "0.5.0+commit.1d4f565a.Linux.g++"
  },
  "schemaVersion": "3.0.16",
  "updatedAt": "2019-10-23T23:21:40.806Z",
  "devdoc": {
    "methods": {
      "allowance(address,address)": {
        "details": "See `IERC20.allowance`."
      },
      "approve(address,uint256)": {
        "details": "See `IERC20.approve`.     * Requirements:     * - `spender` cannot be the zero address."
      },
      "balanceOf(address)": {
        "details": "See `IERC20.balanceOf`."
      },
      "burn(uint256)": {
        "details": "Destoys `amount` tokens from the caller.     * See `ERC20._burn`."
      },
      "burnFrom(address,uint256)": {
        "details": "See `ERC20._burnFrom`."
      },
      "cap()": {
        "details": "Returns the cap on the token's total supply."
      },
      "decimals()": {
        "details": "Returns the number of decimals used to get its user representation. For example, if `decimals` equals `2`, a balance of `505` tokens should be displayed to a user as `5,05` (`505 / 10 ** 2`).     * Tokens usually opt for a value of 18, imitating the relationship between Ether and Wei.     * > Note that this information is only used for _display_ purposes: it in no way affects any of the arithmetic of the contract, including `IERC20.balanceOf` and `IERC20.transfer`."
      },
      "decreaseAllowance(address,uint256)": {
        "details": "Atomically decreases the allowance granted to `spender` by the caller.     * This is an alternative to `approve` that can be used as a mitigation for problems described in `IERC20.approve`.     * Emits an `Approval` event indicating the updated allowance.     * Requirements:     * - `spender` cannot be the zero address. - `spender` must have allowance for the caller of at least `subtractedValue`."
      },
      "increaseAllowance(address,uint256)": {
        "details": "Atomically increases the allowance granted to `spender` by the caller.     * This is an alternative to `approve` that can be used as a mitigation for problems described in `IERC20.approve`.     * Emits an `Approval` event indicating the updated allowance.     * Requirements:     * - `spender` cannot be the zero address."
      },
      "mint(address,uint256)": {
        "details": "See `ERC20._mint`.     * Requirements:     * - the caller must have the `MinterRole`."
      },
      "name()": {
        "details": "Returns the name of the token."
      },
      "symbol()": {
        "details": "Returns the symbol of the token, usually a shorter version of the name."
      },
      "totalSupply()": {
        "details": "See `IERC20.totalSupply`."
      },
      "transfer(address,uint256)": {
        "details": "See `IERC20.transfer`.     * Requirements:     * - `recipient` cannot be the zero address. - the caller must have a balance of at least `amount`."
      },
      "transferFrom(address,address,uint256)": {
        "details": "See `IERC20.transferFrom`.     * Emits an `Approval` event indicating the updated allowance. This is not required by the EIP. See the note at the beginning of `ERC20`;     * Requirements: - `sender` and `recipient` cannot be the zero address. - `sender` must have a balance of at least `value`. - the caller must have allowance for `sender`'s tokens of at least `amount`."
      }
    }
  },
  "userdoc": {
    "methods": {
      "buyOffChain(uint256,string)": {
        "notice": "we will assume that the amount that the user sends is true otherwise he might lose his funds. if there is any issue it will be handled by the team manually wither by refund or anything else "
      }
    }
  }
}