{
  "contractName": "Registration",
  "abi": [
    {
      "constant": true,
      "inputs": [
        {
          "name": "",
          "type": "address"
        }
      ],
      "name": "users",
      "outputs": [
        {
          "name": "",
          "type": "address"
        }
      ],
      "payable": false,
      "stateMutability": "view",
      "type": "function"
    },
    {
      "constant": true,
      "inputs": [],
      "name": "factory",
      "outputs": [
        {
          "name": "",
          "type": "address"
        }
      ],
      "payable": false,
      "stateMutability": "view",
      "type": "function"
    },
    {
      "constant": true,
      "inputs": [],
      "name": "yallaAdmin",
      "outputs": [
        {
          "name": "",
          "type": "address"
        }
      ],
      "payable": false,
      "stateMutability": "view",
      "type": "function"
    },
    {
      "constant": true,
      "inputs": [],
      "name": "attaToken",
      "outputs": [
        {
          "name": "",
          "type": "address"
        }
      ],
      "payable": false,
      "stateMutability": "view",
      "type": "function"
    },
    {
      "inputs": [
        {
          "name": "_attaToken",
          "type": "address"
        },
        {
          "name": "_yallaAdmin",
          "type": "address"
        }
      ],
      "payable": false,
      "stateMutability": "nonpayable",
      "type": "constructor"
    },
    {
      "constant": false,
      "inputs": [
        {
          "name": "_factory",
          "type": "address"
        }
      ],
      "name": "setTokenFactoryContract",
      "outputs": [
        {
          "name": "",
          "type": "bool"
        }
      ],
      "payable": false,
      "stateMutability": "nonpayable",
      "type": "function"
    },
    {
      "constant": false,
      "inputs": [],
      "name": "createNewAccount",
      "outputs": [
        {
          "name": "",
          "type": "bool"
        }
      ],
      "payable": false,
      "stateMutability": "nonpayable",
      "type": "function"
    },
    {
      "constant": false,
      "inputs": [
        {
          "name": "ChrtyOrg",
          "type": "address"
        }
      ],
      "name": "approveChrtyOrg",
      "outputs": [
        {
          "name": "",
          "type": "bool"
        }
      ],
      "payable": false,
      "stateMutability": "nonpayable",
      "type": "function"
    },
    {
      "constant": false,
      "inputs": [
        {
          "name": "ChrtyOrg",
          "type": "address"
        }
      ],
      "name": "rejectChrtyOrg",
      "outputs": [
        {
          "name": "",
          "type": "bool"
        }
      ],
      "payable": false,
      "stateMutability": "nonpayable",
      "type": "function"
    },
    {
      "constant": true,
      "inputs": [
        {
          "name": "ChrtyOrg",
          "type": "address"
        }
      ],
      "name": "isOrg",
      "outputs": [
        {
          "name": "",
          "type": "bool"
        }
      ],
      "payable": false,
      "stateMutability": "view",
      "type": "function"
    }
  ],
  "bytecode": "0x608060405234801561001057600080fd5b506040516040806118678339810180604052604081101561003057600080fd5b50805160209091015160028054600160a060020a03938416600160a060020a031991821617909155600080549390921692169190911790556117f0806100776000396000f3fe6080604052600436106100985763ffffffff7c01000000000000000000000000000000000000000000000000000000006000350416630870035f811461009d57806319f4dea8146100c657806331846404146100f957806382f62a3b1461012c578063a87430ba1461015f578063c45a0155146101ae578063c6af3c2f146101c3578063e15ec7f1146101d8578063f136777e146101ed575b600080fd5b3480156100a957600080fd5b506100b2610220565b604080519115158252519081900360200190f35b3480156100d257600080fd5b506100b2600480360360208110156100e957600080fd5b5035600160a060020a03166102ce565b34801561010557600080fd5b506100b26004803603602081101561011c57600080fd5b5035600160a060020a0316610300565b34801561013857600080fd5b506100b26004803603602081101561014f57600080fd5b5035600160a060020a0316610436565b34801561016b57600080fd5b506101926004803603602081101561018257600080fd5b5035600160a060020a03166105cb565b60408051600160a060020a039092168252519081900360200190f35b3480156101ba57600080fd5b506101926105e6565b3480156101cf57600080fd5b506101926105f5565b3480156101e457600080fd5b50610192610604565b3480156101f957600080fd5b506100b26004803603602081101561021057600080fd5b5035600160a060020a0316610613565b600154600254600091829133913091600160a060020a039182169116610244610750565b600160a060020a039485168152928416602084015290831660408084019190915292166060820152905190819003608001906000f08015801561028b573d6000803e3d6000fd5b50336000908152600360205260409020805473ffffffffffffffffffffffffffffffffffffffff1916600160a060020a0392909216919091179055506001919050565b60006002600160a060020a03831660009081526004602052604090205460ff1660028111156102f957fe5b1492915050565b60008054604080517fe01f2e0f0000000000000000000000000000000000000000000000000000000081523360048201529051600160a060020a039092169163e01f2e0f91602480820192602092909190829003018186803b15801561036557600080fd5b505afa158015610379573d6000803e3d6000fd5b505050506040513d602081101561038f57600080fd5b5051151561040d576040805160e560020a62461bcd02815260206004820152602160248201527f4f6e6c792061646d696e2063616e2063616c6c20746869732066756e6374696f60448201527f6e00000000000000000000000000000000000000000000000000000000000000606482015290519081900360840190fd5b50600160a060020a03166000908152600460205260409020805460ff1916600190811790915590565b60008054604080517fe01f2e0f0000000000000000000000000000000000000000000000000000000081523360048201529051600160a060020a039092169163e01f2e0f91602480820192602092909190829003018186803b15801561049b57600080fd5b505afa1580156104af573d6000803e3d6000fd5b505050506040513d60208110156104c557600080fd5b50511515610543576040805160e560020a62461bcd02815260206004820152602160248201527f4f6e6c792061646d696e2063616e2063616c6c20746869732066756e6374696f60448201527f6e00000000000000000000000000000000000000000000000000000000000000606482015290519081900360840190fd5b8161054d816102ce565b156105a2576040805160e560020a62461bcd02815260206004820152601760248201527f4f726720697320616c726561647920617070726f766564000000000000000000604482015290519081900360640190fd5b5050600160a060020a03166000908152600460205260409020805460ff19166002179055600190565b600360205260009081526040902054600160a060020a031681565b600154600160a060020a031681565b600054600160a060020a031681565b600254600160a060020a031681565b60008054604080517fe01f2e0f0000000000000000000000000000000000000000000000000000000081523360048201529051600160a060020a039092169163e01f2e0f91602480820192602092909190829003018186803b15801561067857600080fd5b505afa15801561068c573d6000803e3d6000fd5b505050506040513d60208110156106a257600080fd5b50511515610720576040805160e560020a62461bcd02815260206004820152602160248201527f4f6e6c792061646d696e2063616e2063616c6c20746869732066756e6374696f60448201527f6e00000000000000000000000000000000000000000000000000000000000000606482015290519081900360840190fd5b5060018054600160a060020a03831673ffffffffffffffffffffffffffffffffffffffff19909116178155919050565b604051611064806107618339019056fe608060405234801561001057600080fd5b506040516080806110648339810180604052608081101561003057600080fd5b508051602082015160408084015160609094015160008054600160a060020a031916600160a060020a038087169190911780835593519596949592938793911691907f8be0079c531659141344cd1fd0a4f28419497f9722a3daafe3b4186f6b6457e0908290a35060038054600160a060020a0319908116600160a060020a03938416179091556002805482169483169490941790935560018054909316911617905550610f81806100e36000396000f3fe6080604052600436106100a35763ffffffff7c01000000000000000000000000000000000000000000000000000000006000350416630319021481146100a85780631ea481091461010d578063443bd1d014610269578063715018a61461029a5780638da5cb5b146102b15780638f32d59b146102c6578063969e3756146102db578063c45a01551461031e578063e15ec7f114610333578063f2fde38b14610348575b600080fd5b3480156100b457600080fd5b506100bd61037b565b60408051602080825283518183015283519192839290830191858101910280838360005b838110156100f95781810151838201526020016100e1565b505050509050019250505060405180910390f35b34801561011957600080fd5b50610255600480360360a081101561013057600080fd5b81019060208101813564010000000081111561014b57600080fd5b82018360208201111561015d57600080fd5b8035906020019184600183028401116401000000008311171561017f57600080fd5b91908080601f01602080910402602001604051908101604052809392919081815260200183838082843760009201919091525092959493602081019350359150506401000000008111156101d257600080fd5b8201836020820111156101e457600080fd5b8035906020019184600183028401116401000000008311171561020657600080fd5b91908080601f0160208091040260200160405190810160405280939291908181526020018383808284376000920191909152509295505060ff83351693505050602081013590604001356103dd565b604080519115158252519081900360200190f35b34801561027557600080fd5b5061027e6106f7565b60408051600160a060020a039092168252519081900360200190f35b3480156102a657600080fd5b506102af610706565b005b3480156102bd57600080fd5b5061027e6107a9565b3480156102d257600080fd5b506102556107b8565b3480156102e757600080fd5b506102af600480360360608110156102fe57600080fd5b50600160a060020a038135811691602081013590911690604001356107c9565b34801561032a57600080fd5b5061027e610cbb565b34801561033f57600080fd5b5061027e610cca565b34801561035457600080fd5b506102af6004803603602081101561036b57600080fd5b5035600160a060020a0316610cd9565b606060058054806020026020016040519081016040528092919081815260200182805480156103d357602002820191906000526020600020905b8154600160a060020a031681526001909101906020018083116103b5575b5050505050905090565b60006103e76107b8565b151561042b576040805160e560020a62461bcd0281526020600482018190526024820152600080516020610f36833981519152604482015290519081900360640190fd5b600254604080517f19f4dea8000000000000000000000000000000000000000000000000000000008152306004820181905291519192600160a060020a0316916319f4dea891602480820192602092909190829003018186803b15801561049157600080fd5b505afa1580156104a5573d6000803e3d6000fd5b505050506040513d60208110156104bb57600080fd5b505115156104c857600080fd5b6001546104de90600160a060020a031685610d31565b1515610534576040805160e560020a62461bcd02815260206004820152601f60248201527f636f756c646e27742073656e6420746f6b656e7320746f20666163746f727900604482015290519081900360640190fd5b6001546040517f1ea4810900000000000000000000000000000000000000000000000000000000815260ff87166044820152606481018690526084810185905260a060048201908152895160a48301528951600593600160a060020a031692631ea48109928c928c928c928c928c928291602482019160c4019060208a019080838360005b838110156105d15781810151838201526020016105b9565b50505050905090810190601f1680156105fe5780820380516001836020036101000a031916815260200191505b50838103825287518152875160209182019189019080838360005b83811015610631578181015183820152602001610619565b50505050905090810190601f16801561065e5780820380516001836020036101000a031916815260200191505b50975050505050505050602060405180830381600087803b15801561068257600080fd5b505af1158015610696573d6000803e3d6000fd5b505050506040513d60208110156106ac57600080fd5b50518154600180820184556000938452602090932001805473ffffffffffffffffffffffffffffffffffffffff1916600160a060020a03909216919091179055979650505050505050565b600254600160a060020a031681565b61070e6107b8565b1515610752576040805160e560020a62461bcd0281526020600482018190526024820152600080516020610f36833981519152604482015290519081900360640190fd5b60008054604051600160a060020a03909116907f8be0079c531659141344cd1fd0a4f28419497f9722a3daafe3b4186f6b6457e0908390a36000805473ffffffffffffffffffffffffffffffffffffffff19169055565b600054600160a060020a031690565b600054600160a060020a0316331490565b6107d16107b8565b1515610815576040805160e560020a62461bcd0281526020600482018190526024820152600080516020610f36833981519152604482015290519081900360640190fd5b604080517f70a0823100000000000000000000000000000000000000000000000000000000815230600482015290518291600160a060020a038516916370a0823191602480820192602092909190829003018186803b15801561087757600080fd5b505afa15801561088b573d6000803e3d6000fd5b505050506040513d60208110156108a157600080fd5b505110156108f9576040805160e560020a62461bcd02815260206004820152601660248201527f4d6f72652046756e647320617265206e65656465642e00000000000000000000604482015290519081900360640190fd5b600354604080517f095ea7b3000000000000000000000000000000000000000000000000000000008152600160a060020a0392831660048201526024810184905290519184169163095ea7b3916044808201926020929091908290030181600087803b15801561096857600080fd5b505af115801561097c573d6000803e3d6000fd5b505050506040513d602081101561099257600080fd5b5050604080517f2c4e722e0000000000000000000000000000000000000000000000000000000081529051600091600160a060020a03851691632c4e722e91600480820192602092909190829003018186803b1580156109f157600080fd5b505afa158015610a05573d6000803e3d6000fd5b505050506040513d6020811015610a1b57600080fd5b505190506000610a31838363ffffffff610dd816565b600154604080517f3928ccd7000000000000000000000000000000000000000000000000000000008152600160a060020a038881166004830152602482018890529151939450911691633928ccd7916044808201926020929091908290030181600087803b158015610aa257600080fd5b505af1158015610ab6573d6000803e3d6000fd5b505050506040513d6020811015610acc57600080fd5b50511515610b4a576040805160e560020a62461bcd02815260206004820152603260248201527f6661696c6420696e2065786368616e676520746f6b656e20776974682061747460448201527f6120746f6b656e20696e20666163746f72790000000000000000000000000000606482015290519081900360840190fd5b610b548584610d31565b1515610baa576040805160e560020a62461bcd02815260206004820152601160248201527f636f756c646e277420617070726f766520000000000000000000000000000000604482015290519081900360640190fd5b84600160a060020a03166316ce8754826040518263ffffffff167c010000000000000000000000000000000000000000000000000000000002815260040180828152602001915050602060405180830381600087803b158015610c0c57600080fd5b505af1158015610c20573d6000803e3d6000fd5b505050506040513d6020811015610c3657600080fd5b50511515610cb4576040805160e560020a62461bcd02815260206004820152602760248201527f20636f756c646e277420627579206e657720746f6b656e20776974682061747460448201527f6120636f696e7400000000000000000000000000000000000000000000000000606482015290519081900360840190fd5b5050505050565b600154600160a060020a031681565b600354600160a060020a031681565b610ce16107b8565b1515610d25576040805160e560020a62461bcd0281526020600482018190526024820152600080516020610f36833981519152604482015290519081900360640190fd5b610d2e81610e47565b50565b600354604080517f095ea7b3000000000000000000000000000000000000000000000000000000008152600160a060020a038581166004830152602482018590529151600093929092169163095ea7b39160448082019260209290919082900301818787803b158015610da357600080fd5b505af1158015610db7573d6000803e3d6000fd5b505050506040513d6020811015610dcd57600080fd5b506001949350505050565b6000808211610e31576040805160e560020a62461bcd02815260206004820152601a60248201527f536166654d6174683a206469766973696f6e206279207a65726f000000000000604482015290519081900360640190fd5b60008284811515610e3e57fe5b04949350505050565b600160a060020a0381161515610ecd576040805160e560020a62461bcd02815260206004820152602660248201527f4f776e61626c653a206e6577206f776e657220697320746865207a65726f206160448201527f6464726573730000000000000000000000000000000000000000000000000000606482015290519081900360840190fd5b60008054604051600160a060020a03808516939216917f8be0079c531659141344cd1fd0a4f28419497f9722a3daafe3b4186f6b6457e091a36000805473ffffffffffffffffffffffffffffffffffffffff1916600160a060020a039290921691909117905556fe4f776e61626c653a2063616c6c6572206973206e6f7420746865206f776e6572a165627a7a72305820ac0b87eb01a829814326c069151609ea1c438086f74e1454de9db608a343e4ec0029a165627a7a723058201fadfdeb2d7d21e9e7b938c66caaf6aa4f58f4bfd8ddc107711bd3c8fdcdad580029",
  "source": "pragma solidity ^0.5.0;\nimport \"openzeppelin-solidity/contracts/math/SafeMath.sol\";\nimport \"./UserWalletContract.sol\";\nimport \"./TokenFactory.sol\";\nimport \"./AtaaToken.sol\";\nimport \"./YallaGiveAdmins.sol\";\n\n/** this contract should manage all type of ChrtyOrgs \n */\ncontract Registration   {\n    enum Authorization {pending, rejected, approved}\n    YallaGiveAdmins public yallaAdmin;\n    TokenFactory public factory;\n    AtaaToken public attaToken;\n    mapping(address => address) public users;\n    // struct ChrtyOrg {\n    //     address[] ownedTokens;\n    //     // address[] orgRequest;\n    //     Authorization status;\n    // }\n    \n    mapping(address => Authorization) chrtyOrgs;\n\nconstructor(AtaaToken _attaToken, YallaGiveAdmins _yallaAdmin )public{\n        attaToken = _attaToken;\n        yallaAdmin = _yallaAdmin;\n        \n}\n    modifier onlyUnApprovedOrg(address ChrtyOrg){\n        require(!isOrg(ChrtyOrg),\"Org is already approved\");\n         _;\n    }\n    modifier onlyYgAdmin(){\n        require(yallaAdmin.isYgAdmin(msg.sender),\"Only admin can call this function\");\n         _;\n    }\n    // modifier onlyApprovedOrg(address ChrtyOrg){\n    //     require(chrtyOrgs[ChrtyOrg].status == Authorization.approved)\n    //      _;\n    // }\n// why you made it payable ?\nfunction setTokenFactoryContract(TokenFactory _factory) public onlyYgAdmin returns (bool){\nfactory = _factory;\nreturn true;\n}\n\n    function createNewAccount() public returns (bool) {// address owner , Registration _registration ,TokenFactory _factory ,IERC20 _attaToken\n        address newUser = address(new UserWalletContract(msg.sender,Registration(address(this)),factory,attaToken));\n        users[msg.sender] = newUser;\n        return true;\n    }\n    function approveChrtyOrg(address ChrtyOrg) public onlyYgAdmin onlyUnApprovedOrg(ChrtyOrg) returns (bool) {\n       chrtyOrgs[ChrtyOrg] = Authorization.approved;\n       return true;\n   }\n//     function chrtyOrgRequest() public  returns (bool) {\n    // we should use event to fire when request\n//        chrtyOrgs[ChrtyOrg].status = Authorization.pending;\n//        return true;\n//    }\n\n// TODO :  need to think in whether we have to manage org request on chain or off chain\n        function rejectChrtyOrg(address ChrtyOrg) public onlyYgAdmin returns (bool) {\n       chrtyOrgs[ChrtyOrg] = Authorization.rejected;\n       return true;\n   }\n  \n//     function GetUserAccount(address userEthAddress) public view returns(address) {\n//        return users[userEthAddress];\n//    }\n//     function getChrtyOrgAuthority(address ChrtyOrg) public view returns(Authorization) {\n//        return chrtyOrgs[ChrtyOrg];\n//    }\n   function isOrg(address ChrtyOrg)public view  returns (bool){\n       return chrtyOrgs[ChrtyOrg] == Authorization.approved;\n   } \n//      function getAllUsers() public view returns (address[] memory) {\n//       return users;\n//    }\n\n}",
  "sourcePath": "/home/youssef/Desktop/yallagive/tokenbackend/contracts/Registration.sol",
  "compiler": {
    "name": "solc",
    "version": "0.5.0+commit.1d4f565a.Linux.g++"
  },
  "schemaVersion": "3.0.16",
  "updatedAt": "2019-10-24T08:21:20.626Z",
  "devdoc": {
    "methods": {}
  },
  "userdoc": {
    "methods": {},
    "notice": "this contract should manage all type of ChrtyOrgs "
  }
}