{
  "contractName": "TokenFactory",
  "abi": [
    {
      "constant": true,
      "inputs": [
        {
          "name": "",
          "type": "uint256"
        }
      ],
      "name": "newTokens",
      "outputs": [
        {
          "name": "",
          "type": "address"
        }
      ],
      "payable": false,
      "stateMutability": "view",
      "type": "function"
    },
    {
      "constant": true,
      "inputs": [],
      "name": "registration",
      "outputs": [
        {
          "name": "",
          "type": "address"
        }
      ],
      "payable": false,
      "stateMutability": "view",
      "type": "function"
    },
    {
      "constant": true,
      "inputs": [],
      "name": "YgAdmins",
      "outputs": [
        {
          "name": "",
          "type": "address"
        }
      ],
      "payable": false,
      "stateMutability": "view",
      "type": "function"
    },
    {
      "constant": true,
      "inputs": [],
      "name": "owner",
      "outputs": [
        {
          "name": "",
          "type": "address"
        }
      ],
      "payable": false,
      "stateMutability": "view",
      "type": "function"
    },
    {
      "constant": true,
      "inputs": [],
      "name": "attaToken",
      "outputs": [
        {
          "name": "",
          "type": "address"
        }
      ],
      "payable": false,
      "stateMutability": "view",
      "type": "function"
    },
    {
      "inputs": [
        {
          "name": "_attaToken",
          "type": "address"
        },
        {
          "name": "_yallaAdmin",
          "type": "address"
        },
        {
          "name": "_registration",
          "type": "address"
        }
      ],
      "payable": false,
      "stateMutability": "nonpayable",
      "type": "constructor"
    },
    {
      "constant": false,
      "inputs": [
        {
          "name": "name",
          "type": "string"
        },
        {
          "name": "symbol",
          "type": "string"
        },
        {
          "name": "decimals",
          "type": "uint8"
        },
        {
          "name": "toPayAtaa",
          "type": "uint256"
        },
        {
          "name": "price",
          "type": "uint256"
        }
      ],
      "name": "createNewToken",
      "outputs": [
        {
          "name": "",
          "type": "address"
        }
      ],
      "payable": false,
      "stateMutability": "nonpayable",
      "type": "function"
    },
    {
      "constant": false,
      "inputs": [
        {
          "name": "tokentobuy",
          "type": "address"
        },
        {
          "name": "tokenToSell",
          "type": "address"
        },
        {
          "name": "amount",
          "type": "uint256"
        },
        {
          "name": "sender",
          "type": "address"
        }
      ],
      "name": "exchangeToken",
      "outputs": [
        {
          "name": "",
          "type": "bool"
        }
      ],
      "payable": false,
      "stateMutability": "nonpayable",
      "type": "function"
    },
    {
      "constant": false,
      "inputs": [
        {
          "name": "tokenToSell",
          "type": "address"
        },
        {
          "name": "amount",
          "type": "uint256"
        }
      ],
      "name": "sendTokenToFactory",
      "outputs": [
        {
          "name": "",
          "type": "bool"
        }
      ],
      "payable": false,
      "stateMutability": "nonpayable",
      "type": "function"
    },
    {
      "constant": true,
      "inputs": [],
      "name": "getAllTokenContracts",
      "outputs": [
        {
          "name": "",
          "type": "address[]"
        }
      ],
      "payable": false,
      "stateMutability": "view",
      "type": "function"
    }
  ],
  "bytecode": "0x608060405234801561001057600080fd5b50604051606080613c138339810180604052606081101561003057600080fd5b508051602082015160409092015160018054600160a060020a0319908116331790915560038054600160a060020a039485169083161790556000805494841694821694909417909355600480549290911691909216179055613b7c806100976000396000f3fe608060405260043610620000a25763ffffffff7c01000000000000000000000000000000000000000000000000000000006000350416631ea481098114620000a75780632b8ded4614620001ab5780633928ccd714620001d9578063443bd1d0146200022a578063546ac72814620002425780638da5cb5b146200025a578063c78818211462000272578063d26d370514620002bf578063e15ec7f11462000329575b600080fd5b348015620000b457600080fd5b506200018f600480360360a0811015620000cd57600080fd5b810190602081018135640100000000811115620000e957600080fd5b820183602082011115620000fc57600080fd5b803590602001918460018302840111640100000000831117156200011f57600080fd5b9193909290916020810190356401000000008111156200013e57600080fd5b8201836020820111156200015157600080fd5b803590602001918460018302840111640100000000831117156200017457600080fd5b919350915060ff813516906020810135906040013562000341565b60408051600160a060020a039092168252519081900360200190f35b348015620001b857600080fd5b506200018f60048036036020811015620001d157600080fd5b503562000753565b348015620001e657600080fd5b506200021660048036036040811015620001ff57600080fd5b50600160a060020a0381351690602001356200077c565b604080519115158252519081900360200190f35b3480156200023757600080fd5b506200018f62000a18565b3480156200024f57600080fd5b506200018f62000a27565b3480156200026757600080fd5b506200018f62000a36565b3480156200027f57600080fd5b5062000216600480360360808110156200029857600080fd5b50600160a060020a0381358116916020810135821691604082013591606001351662000a45565b348015620002cc57600080fd5b50620002d762000b44565b60408051602080825283518183015283519192839290830191858101910280838360005b8381101562000315578181015183820152602001620002fb565b505050509050019250505060405180910390f35b3480156200033657600080fd5b506200018f62000ba8565b60048054604080517f19f4dea800000000000000000000000000000000000000000000000000000000815233938101849052905160009392600160a060020a0316916319f4dea8916024808301926020929190829003018186803b158015620003a957600080fd5b505afa158015620003be573d6000803e3d6000fd5b505050506040513d6020811015620003d557600080fd5b5051151562000453576040805160e560020a62461bcd028152602060048201526024808201527f4e6f7420617574686f72697a656420746f20637265617465206e657720746f6b60448201527f656e732e00000000000000000000000000000000000000000000000000000000606482015290519081900360840190fd5b600354604080517fdd62ed3e00000000000000000000000000000000000000000000000000000000815233600482015230602482015290518692600160a060020a03169163dd62ed3e916044808301926020929190829003018186803b158015620004bd57600080fd5b505afa158015620004d2573d6000803e3d6000fd5b505050506040513d6020811015620004e957600080fd5b5051101562000542576040805160e560020a62461bcd02815260206004820152601660248201527f4d6f72652046756e647320617265206e65656465642e00000000000000000000604482015290519081900360640190fd5b600062000556858563ffffffff62000bb716565b905062000564338662000c5e565b151562000607576040805160e560020a62461bcd02815260206004820152604260248201527f63616e2774206275726e20746f6b656e2c20706c6561736520636865636b207460448201527f6861742074686520666163746f727920636f6e747261637420616c6c6f77656e60648201527f6365000000000000000000000000000000000000000000000000000000000000608482015290519081900360a40190fd5b6003546000805490918c918c918c918c918c9188918c913391600160a060020a0390811691166200063762000dfc565b60ff871660408201526060810186905260808101859052600160a060020a0380851660a083015283811660c0830152821660e082015261010080825281018a9052806020810161012082018d8d80828437600083820152601f01601f191690910184810383528b815260200190508b8b808284376000838201819052604051601f909201601f19169093018190039f509d50909b505050505050505050505050f080158015620006eb573d6000803e3d6000fd5b50600280546001810182556000919091527f405787fa12a823e0f2b7631cc41b3ba8828b3321ca811111fa75cd3aa3bb5ace01805473ffffffffffffffffffffffffffffffffffffffff1916600160a060020a0383161790559b9a5050505050505050505050565b60028054829081106200076257fe5b600091825260209091200154600160a060020a0316905081565b604080517fdd62ed3e00000000000000000000000000000000000000000000000000000000815233600482015230602482015290516000918391600160a060020a0386169163dd62ed3e916044808301926020929190829003018186803b158015620007e757600080fd5b505afa158015620007fc573d6000803e3d6000fd5b505050506040513d60208110156200081357600080fd5b505110156200086c576040805160e560020a62461bcd02815260206004820152601660248201527f4d6f72652046756e647320617265206e65656465642e00000000000000000000604482015290519081900360640190fd5b600154604080517fa9059cbb000000000000000000000000000000000000000000000000000000008152600160a060020a0392831660048201526024810185905290519185169163a9059cbb916044808201926020929091908290030181600087803b158015620008dc57600080fd5b505af1158015620008f1573d6000803e3d6000fd5b505050506040513d60208110156200090857600080fd5b5050604080517f2c4e722e0000000000000000000000000000000000000000000000000000000081529051600091600160a060020a03861691632c4e722e91600480820192602092909190829003018186803b1580156200096857600080fd5b505afa1580156200097d573d6000803e3d6000fd5b505050506040513d60208110156200099457600080fd5b50519050620009b533620009af858463ffffffff62000cec16565b62000d5d565b151562000a0c576040805160e560020a62461bcd02815260206004820152601760248201527f636f756c646e2774206d696e74206174746120636f696e000000000000000000604482015290519081900360640190fd5b60019150505b92915050565b600454600160a060020a031681565b600054600160a060020a031681565b600154600160a060020a031681565b600354604080517fdd62ed3e000000000000000000000000000000000000000000000000000000008152600160a060020a03848116600483015230602483015291516000938693169163dd62ed3e916044808301926020929190829003018186803b15801562000ab457600080fd5b505afa15801562000ac9573d6000803e3d6000fd5b505050506040513d602081101562000ae057600080fd5b5051101562000b39576040805160e560020a62461bcd02815260206004820152601660248201527f4d6f72652046756e647320617265206e65656465642e00000000000000000000604482015290519081900360640190fd5b506001949350505050565b6060600280548060200260200160405190810160405280929190818152602001828054801562000b9e57602002820191906000526020600020905b8154600160a060020a0316815260019091019060200180831162000b7f575b5050505050905090565b600354600160a060020a031681565b600082151562000bca5750600062000a12565b82820282848281151562000bda57fe5b041462000c57576040805160e560020a62461bcd02815260206004820152602160248201527f536166654d6174683a206d756c7469706c69636174696f6e206f766572666c6f60448201527f7700000000000000000000000000000000000000000000000000000000000000606482015290519081900360840190fd5b9392505050565b600354604080517f79cc6790000000000000000000000000000000000000000000000000000000008152336004820152602481018490529051600092600160a060020a0316916379cc6790916044808301928692919082900301818387803b15801562000cca57600080fd5b505af115801562000cdf573d6000803e3d6000fd5b5060019695505050505050565b600080821162000d46576040805160e560020a62461bcd02815260206004820152601a60248201527f536166654d6174683a206469766973696f6e206279207a65726f000000000000604482015290519081900360640190fd5b6000828481151562000d5457fe5b04949350505050565b600354604080517f40c10f19000000000000000000000000000000000000000000000000000000008152600160a060020a03858116600483015260248201859052915160009392909216916340c10f199160448082019260209290919082900301818787803b15801562000dd057600080fd5b505af115801562000de5573d6000803e3d6000fd5b505050506040513d602081101562000b3957600080fd5b604051612d438062000e0e8339019056fe60806040523480156200001157600080fd5b5060405162002d4338038062002d4383398101806040526101008110156200003857600080fd5b8101908080516401000000008111156200005157600080fd5b820160208101848111156200006557600080fd5b81516401000000008111828201871017156200008057600080fd5b505092919060200180516401000000008111156200009d57600080fd5b82016020810184811115620000b157600080fd5b8151640100000000811182820187101715620000cc57600080fd5b505060208083015160408401516060850151608086015160a087015160c0909701518a5196995093975091959094919390929186918a918a918a9162000119916000919086019062000584565b5081516200012f90600190602085019062000584565b506002805460ff191660ff92909216919091179055506200015b905033640100000000620003cb810204565b60008111620001cb57604080517f08c379a000000000000000000000000000000000000000000000000000000000815260206004820152601560248201527f45524332304361707065643a2063617020697320300000000000000000000000604482015290519081900360640190fd5b6007556001600855600084116200024357604080517f08c379a000000000000000000000000000000000000000000000000000000000815260206004820152601a60248201527f20747261646520636f6e74726163743a20726174652069732030000000000000604482015290519081900360640190fd5b600160a060020a0383161515620002e157604080517f08c379a000000000000000000000000000000000000000000000000000000000815260206004820152602b60248201527f20747261646520636f6e74726163743a2077616c6c657420697320746865207a60448201527f65726f2061646472657373000000000000000000000000000000000000000000606482015290519081900360840190fd5b600160a060020a03821615156200037f57604080517f08c379a000000000000000000000000000000000000000000000000000000000815260206004820152602a60248201527f20747261646520636f6e74726163743a20746f6b656e20697320746865207a6560448201527f726f206164647265737300000000000000000000000000000000000000000000606482015290519081900360840190fd5b60098054600160a060020a0319908116600160a060020a0394851617909155600c94909455600a8054851693831693909317909255600b80549093169116179055506200062992505050565b620003e6600682640100000000620017366200041d82021704565b604051600160a060020a038216907f6ae172837ea30b801fbfcdd4108aa1d5bf8ff775444fd70256b44e6bf3dfc3f690600090a250565b620004328282640100000000620004c4810204565b156200049f57604080517f08c379a000000000000000000000000000000000000000000000000000000000815260206004820152601f60248201527f526f6c65733a206163636f756e7420616c72656164792068617320726f6c6500604482015290519081900360640190fd5b600160a060020a0316600090815260209190915260409020805460ff19166001179055565b6000600160a060020a03821615156200056457604080517f08c379a000000000000000000000000000000000000000000000000000000000815260206004820152602260248201527f526f6c65733a206163636f756e7420697320746865207a65726f20616464726560448201527f7373000000000000000000000000000000000000000000000000000000000000606482015290519081900360840190fd5b50600160a060020a03166000908152602091909152604090205460ff1690565b828054600181600116156101000203166002900490600052602060002090601f016020900481019282601f10620005c757805160ff1916838001178555620005f7565b82800160010185558215620005f7579182015b82811115620005f7578251825591602001919060010190620005da565b506200060592915062000609565b5090565b6200062691905b8082111562000605576000815560010162000610565b90565b61270a80620006396000396000f3fe608060405260043610620001565763ffffffff7c010000000000000000000000000000000000000000000000000000000060003504166306fdde0381146200015b578063095ea7b314620001eb57806316ce8754146200023c57806318160ddd146200026a57806323b872dd14620002945780632c4e722e14620002db578063313ce56714620002f3578063355274ea146200032157806339509351146200033957806340c10f19146200037657806342966c6814620003b3578063546ac72814620003e35780636cf8ac0d146200041757806370a0823114620004d857806379cc6790146200050f5780638da5cb5b146200054c57806395d89b411462000564578063983b2d56146200057c5780639865027514620005b3578063a457c2d714620005cb578063a9059cbb1462000608578063aa271e1a1462000645578063af805f54146200067c578063dd62ed3e1462000694575b600080fd5b3480156200016857600080fd5b5062000173620006d3565b6040805160208082528351818301528351919283929083019185019080838360005b83811015620001af57818101518382015260200162000195565b50505050905090810190601f168015620001dd5780820380516001836020036101000a031916815260200191505b509250505060405180910390f35b348015620001f857600080fd5b5062000228600480360360408110156200021157600080fd5b50600160a060020a0381351690602001356200076d565b604080519115158252519081900360200190f35b3480156200024957600080fd5b5062000228600480360360208110156200026257600080fd5b503562000786565b3480156200027757600080fd5b50620002826200089a565b60408051918252519081900360200190f35b348015620002a157600080fd5b506200022860048036036060811015620002ba57600080fd5b50600160a060020a03813581169160208101359091169060400135620008a0565b348015620002e857600080fd5b5062000282620008fd565b3480156200030057600080fd5b506200030b62000903565b6040805160ff9092168252519081900360200190f35b3480156200032e57600080fd5b50620002826200090c565b3480156200034657600080fd5b5062000228600480360360408110156200035f57600080fd5b50600160a060020a03813516906020013562000912565b3480156200038357600080fd5b5062000228600480360360408110156200039c57600080fd5b50600160a060020a03813516906020013562000951565b348015620003c057600080fd5b50620003e160048036036020811015620003d957600080fd5b5035620009e7565b005b348015620003f057600080fd5b50620003fb620009f6565b60408051600160a060020a039092168252519081900360200190f35b3480156200042457600080fd5b5062000228600480360360408110156200043d57600080fd5b813591908101906040810160208201356401000000008111156200046057600080fd5b8201836020820111156200047357600080fd5b803590602001918460018302840111640100000000831117156200049657600080fd5b91908080601f01602080910402602001604051908101604052809392919081815260200183838082843760009201919091525092955062000a05945050505050565b348015620004e557600080fd5b506200028260048036036020811015620004fe57600080fd5b5035600160a060020a031662000b00565b3480156200051c57600080fd5b50620003e1600480360360408110156200053557600080fd5b50600160a060020a03813516906020013562000b1b565b3480156200055957600080fd5b50620003fb62000b2b565b3480156200057157600080fd5b506200017362000b3a565b3480156200058957600080fd5b50620003e160048036036020811015620005a257600080fd5b5035600160a060020a031662000b9d565b348015620005c057600080fd5b50620003e162000c30565b348015620005d857600080fd5b506200022860048036036040811015620005f157600080fd5b50600160a060020a03813516906020013562000c3d565b3480156200061557600080fd5b5062000228600480360360408110156200062e57600080fd5b50600160a060020a03813516906020013562000c7c565b3480156200065257600080fd5b5062000228600480360360208110156200066b57600080fd5b5035600160a060020a031662000c8b565b3480156200068957600080fd5b50620003fb62000ca0565b348015620006a157600080fd5b506200028260048036036040811015620006ba57600080fd5b50600160a060020a038135811691602001351662000caf565b60008054604080516020601f6002600019610100600188161502019095169490940493840181900481028201810190925282815260609390929091830182828015620007635780601f10620007375761010080835404028352916020019162000763565b820191906000526020600020905b8154815290600101906020018083116200074557829003601f168201915b5050505050905090565b60006200077c33848462000cda565b5060015b92915050565b600954604080517fdd62ed3e00000000000000000000000000000000000000000000000000000000815233600482015230602482015290516000928492600160a060020a039091169163dd62ed3e91604480820192602092909190829003018186803b158015620007f657600080fd5b505afa1580156200080b573d6000803e3d6000fd5b505050506040513d60208110156200082257600080fd5b505110156200087b576040805160e560020a62461bcd02815260206004820152601660248201527f4d6f72652046756e647320617265206e65656465642e00000000000000000000604482015290519081900360640190fd5b62000887338362000e49565b620008928262000edb565b506001919050565b60055490565b6000620008af84848462000f7a565b600160a060020a038416600090815260046020908152604080832033808552925290912054620008f3918691620008ed908663ffffffff6200114616565b62000cda565b5060019392505050565b600c5490565b60025460ff1690565b60075490565b336000818152600460209081526040808320600160a060020a038716845290915281205490916200077c918590620008ed908663ffffffff620011a716565b60006200095e3362000c8b565b1515620009db576040805160e560020a62461bcd02815260206004820152603060248201527f4d696e746572526f6c653a2063616c6c657220646f6573206e6f74206861766560448201527f20746865204d696e74657220726f6c6500000000000000000000000000000000606482015290519081900360840190fd5b6200077c83836200120c565b620009f333826200128e565b50565b600b54600160a060020a031681565b600a54600b5460009182913391600160a060020a0390811691309116878762000a2d62001a23565b600160a060020a038088168252868116602080840191909152868216604084015290851660608301526080820184905260c060a083018181528451918401919091528351909160e08401919085019080838360005b8381101562000a9c57818101518382015260200162000a82565b50505050905090810190601f16801562000aca5780820380516001836020036101000a031916815260200191505b50975050505050505050604051809103906000f08015801562000af1573d6000803e3d6000fd5b509050620008f3818562000e49565b600160a060020a031660009081526003602052604090205490565b62000b278282620013af565b5050565b600a54600160a060020a031681565b60018054604080516020601f60026000196101008789161502019095169490940493840181900481028201810190925282815260609390929091830182828015620007635780601f10620007375761010080835404028352916020019162000763565b62000ba83362000c8b565b151562000c25576040805160e560020a62461bcd02815260206004820152603060248201527f4d696e746572526f6c653a2063616c6c657220646f6573206e6f74206861766560448201527f20746865204d696e74657220726f6c6500000000000000000000000000000000606482015290519081900360840190fd5b620009f381620013f9565b62000c3b3362001443565b565b336000818152600460209081526040808320600160a060020a038716845290915281205490916200077c918590620008ed908663ffffffff6200114616565b60006200077c33848462000f7a565b60006200078060068363ffffffff6200148d16565b600954600160a060020a031681565b600160a060020a03918216600090815260046020908152604080832093909416825291909152205490565b600160a060020a038316151562000d60576040805160e560020a62461bcd028152602060048201526024808201527f45524332303a20617070726f76652066726f6d20746865207a65726f2061646460448201527f7265737300000000000000000000000000000000000000000000000000000000606482015290519081900360840190fd5b600160a060020a038216151562000de7576040805160e560020a62461bcd02815260206004820152602260248201527f45524332303a20617070726f766520746f20746865207a65726f20616464726560448201527f7373000000000000000000000000000000000000000000000000000000000000606482015290519081900360840190fd5b600160a060020a03808416600081815260046020908152604080832094871680845294825291829020859055815185815291517f8c5be1e5ebec7d5bd14f71427d1e84f3dd0314c0f7b2291e5b200ac8c7c3b9259281900390910190a3505050565b600880546001019081905562000e60838362001536565b600062000e6d8362001615565b905062000e7b84826200162e565b50600854811462000ed6576040805160e560020a62461bcd02815260206004820152601f60248201527f5265656e7472616e637947756172643a207265656e7472616e742063616c6c00604482015290519081900360640190fd5b505050565b600954600a54604080517fa9059cbb000000000000000000000000000000000000000000000000000000008152600160a060020a039283166004820152602481018590529051919092169163a9059cbb9160448083019260209291908290030181600087803b15801562000f4e57600080fd5b505af115801562000f63573d6000803e3d6000fd5b505050506040513d602081101562000ed657600080fd5b600160a060020a038316151562001001576040805160e560020a62461bcd02815260206004820152602560248201527f45524332303a207472616e736665722066726f6d20746865207a65726f20616460448201527f6472657373000000000000000000000000000000000000000000000000000000606482015290519081900360840190fd5b600160a060020a038216151562001088576040805160e560020a62461bcd02815260206004820152602360248201527f45524332303a207472616e7366657220746f20746865207a65726f206164647260448201527f6573730000000000000000000000000000000000000000000000000000000000606482015290519081900360840190fd5b600160a060020a038316600090815260036020526040902054620010b3908263ffffffff6200114616565b600160a060020a038085166000908152600360205260408082209390935590841681522054620010ea908263ffffffff620011a716565b600160a060020a0380841660008181526003602090815260409182902094909455805185815290519193928716927fddf252ad1be2c89b69c2b068fc378daa952ba7f163c4a11628f55a4df523b3ef92918290030190a3505050565b600082821115620011a1576040805160e560020a62461bcd02815260206004820152601e60248201527f536166654d6174683a207375627472616374696f6e206f766572666c6f770000604482015290519081900360640190fd5b50900390565b60008282018381101562001205576040805160e560020a62461bcd02815260206004820152601b60248201527f536166654d6174683a206164646974696f6e206f766572666c6f770000000000604482015290519081900360640190fd5b9392505050565b6007546200122b826200121e6200089a565b9063ffffffff620011a716565b111562001282576040805160e560020a62461bcd02815260206004820152601960248201527f45524332304361707065643a2063617020657863656564656400000000000000604482015290519081900360640190fd5b62000b2782826200163a565b600160a060020a038216151562001315576040805160e560020a62461bcd02815260206004820152602160248201527f45524332303a206275726e2066726f6d20746865207a65726f2061646472657360448201527f7300000000000000000000000000000000000000000000000000000000000000606482015290519081900360840190fd5b6005546200132a908263ffffffff6200114616565b600555600160a060020a03821660009081526003602052604090205462001358908263ffffffff6200114616565b600160a060020a0383166000818152600360209081526040808320949094558351858152935191937fddf252ad1be2c89b69c2b068fc378daa952ba7f163c4a11628f55a4df523b3ef929081900390910190a35050565b620013bb82826200128e565b600160a060020a03821660009081526004602090815260408083203380855292529091205462000b27918491620008ed908563ffffffff6200114616565b6200140c60068263ffffffff6200173616565b604051600160a060020a038216907f6ae172837ea30b801fbfcdd4108aa1d5bf8ff775444fd70256b44e6bf3dfc3f690600090a250565b6200145660068263ffffffff620017bd16565b604051600160a060020a038216907fe94479a9f7e1952cc78f2d6baab678adc1b772d936c6583def489e524cb6669290600090a250565b6000600160a060020a038216151562001516576040805160e560020a62461bcd02815260206004820152602260248201527f526f6c65733a206163636f756e7420697320746865207a65726f20616464726560448201527f7373000000000000000000000000000000000000000000000000000000000000606482015290519081900360840190fd5b50600160a060020a03166000908152602091909152604090205460ff1690565b600160a060020a0382161515620015bd576040805160e560020a62461bcd02815260206004820152602f60248201527f547261646520636f6e74726163743a2062656e6566696369617279206973207460448201527f6865207a65726f20616464726573730000000000000000000000000000000000606482015290519081900360840190fd5b80151562000b27576040805160e560020a62461bcd02815260206004820152601b60248201527f547261646520636f6e74726163743a20416d6f756e7420697320300000000000604482015290519081900360640190fd5b600062000780600c54836200186890919063ffffffff16565b62000b27828262001908565b600160a060020a03821615156200169b576040805160e560020a62461bcd02815260206004820152601f60248201527f45524332303a206d696e7420746f20746865207a65726f206164647265737300604482015290519081900360640190fd5b600554620016b0908263ffffffff620011a716565b600555600160a060020a038216600090815260036020526040902054620016de908263ffffffff620011a716565b600160a060020a03831660008181526003602090815260408083209490945583518581529351929391927fddf252ad1be2c89b69c2b068fc378daa952ba7f163c4a11628f55a4df523b3ef9281900390910190a35050565b6200174282826200148d565b1562001798576040805160e560020a62461bcd02815260206004820152601f60248201527f526f6c65733a206163636f756e7420616c72656164792068617320726f6c6500604482015290519081900360640190fd5b600160a060020a0316600090815260209190915260409020805460ff19166001179055565b620017c982826200148d565b151562001846576040805160e560020a62461bcd02815260206004820152602160248201527f526f6c65733a206163636f756e7420646f6573206e6f74206861766520726f6c60448201527f6500000000000000000000000000000000000000000000000000000000000000606482015290519081900360840190fd5b600160a060020a0316600090815260209190915260409020805460ff19169055565b60008215156200187b5750600062000780565b8282028284828115156200188b57fe5b041462001205576040805160e560020a62461bcd02815260206004820152602160248201527f536166654d6174683a206d756c7469706c69636174696f6e206f766572666c6f60448201527f7700000000000000000000000000000000000000000000000000000000000000606482015290519081900360840190fd5b600954604080517f40c10f19000000000000000000000000000000000000000000000000000000008152600160a060020a03858116600483015260248201859052915191909216916340c10f199160448083019260209291908290030181600087803b1580156200197857600080fd5b505af11580156200198d573d6000803e3d6000fd5b505050506040513d6020811015620019a457600080fd5b5051151562000b27576040805160e560020a62461bcd02815260206004820152602560248201527f4d696e74656420747261646520636f6e74726163743a206d696e74696e67206660448201527f61696c6564000000000000000000000000000000000000000000000000000000606482015290519081900360840190fd5b604051610caa8062001a358339019056fe608060405234801561001057600080fd5b50604051610caa380380610caa833981018060405260c081101561003357600080fd5b8151602083015160408401516060850151608086015160a0870180519597949693959294919382019264010000000081111561006e57600080fd5b8201602081018481111561008157600080fd5b815164010000000081118282018710171561009b57600080fd5b50506000805460018054600160a060020a038d8116600160a060020a0319928316179092558b82169281163317811692909217909255600280548a841690831617905560038054928916929091169190911790556004859055805190935061010c9250600591506020840190610127565b505042600681905562093a8001600755506101c29350505050565b828054600181600116156101000203166002900490600052602060002090601f016020900481019282601f1061016857805160ff1916838001178555610195565b82800160010185558215610195579182015b8281111561019557825182559160200191906001019061017a565b506101a19291506101a5565b5090565b6101bf91905b808211156101a157600081556001016101ab565b90565b610ad9806101d16000396000f3fe6080604052600436106100cf5763ffffffff7c010000000000000000000000000000000000000000000000000000000060003504166302d2003e81146100d45780630dc65a121461010557806314ff4fc71461012c57806337142c5314610143578063546ac72814610158578063556bc9411461016d5780636711e62f146101825780636ecc75af1461020c57806378e9792514610221578063a96f866814610236578063b91d40011461024b578063c19d93fb14610260578063df1250bd14610299578063fc0c546a146102c2575b600080fd5b3480156100e057600080fd5b506100e96102d7565b60408051600160a060020a039092168252519081900360200190f35b34801561011157600080fd5b5061011a6102e6565b60408051918252519081900360200190f35b34801561013857600080fd5b506101416102ec565b005b34801561014f57600080fd5b50610141610505565b34801561016457600080fd5b506100e96105be565b34801561017957600080fd5b506101416105cd565b34801561018e57600080fd5b506101976107c2565b6040805160208082528351818301528351919283929083019185019080838360005b838110156101d15781810151838201526020016101b9565b50505050905090810190601f1680156101fe5780820380516001836020036101000a031916815260200191505b509250505060405180910390f35b34801561021857600080fd5b506100e9610850565b34801561022d57600080fd5b5061011a61085f565b34801561024257600080fd5b50610141610865565b34801561025757600080fd5b5061011a610998565b34801561026c57600080fd5b5061027561099e565b6040518082600281111561028557fe5b60ff16815260200191505060405180910390f35b3480156102a557600080fd5b506102ae6109a7565b604080519115158252519081900360200190f35b3480156102ce57600080fd5b506100e9610a7e565b600154600160a060020a031681565b60045481565b60028060085460ff16600281111561030057fe5b14610343576040805160e560020a62461bcd02815260206004820152600e6024820152600080516020610a8e833981519152604482015290519081900360640190fd5b600354604080517fe01f2e0f0000000000000000000000000000000000000000000000000000000081523360048201529051600160a060020a039092169163e01f2e0f91602480820192602092909190829003018186803b1580156103a757600080fd5b505afa1580156103bb573d6000803e3d6000fd5b505050506040513d60208110156103d157600080fd5b5051151561044e576040805160e560020a62461bcd028152602060048201526024808201527f4f6e6c7920612059616c6c61476976652041646d696e2063616e2063616c6c2060448201527f7468697300000000000000000000000000000000000000000000000000000000606482015290519081900360840190fd5b6008805460ff19166001908117909155600254905460048054604080517fa9059cbb000000000000000000000000000000000000000000000000000000008152600160a060020a0394851693810193909352602483019190915251919092169163a9059cbb9160448083019260209291908290030181600087803b1580156104d557600080fd5b505af11580156104e9573d6000803e3d6000fd5b505050506040513d60208110156104ff57600080fd5b50339050ff5b60008060085460ff16600281111561051957fe5b1461055c576040805160e560020a62461bcd02815260206004820152600e6024820152600080516020610a8e833981519152604482015290519081900360640190fd5b600054600160a060020a0316331461044e576040805160e560020a62461bcd02815260206004820152601e60248201527f4f6e6c7920746f6b656e206f776e65722063616e2063616c6c20746869730000604482015290519081900360640190fd5b600354600160a060020a031681565b60028060085460ff1660028111156105e157fe5b14610624576040805160e560020a62461bcd02815260206004820152600e6024820152600080516020610a8e833981519152604482015290519081900360640190fd5b600354604080517fe01f2e0f0000000000000000000000000000000000000000000000000000000081523360048201529051600160a060020a039092169163e01f2e0f91602480820192602092909190829003018186803b15801561068857600080fd5b505afa15801561069c573d6000803e3d6000fd5b505050506040513d60208110156106b257600080fd5b5051151561072f576040805160e560020a62461bcd028152602060048201526024808201527f4f6e6c7920612059616c6c61476976652041646d696e2063616e2063616c6c2060448201527f7468697300000000000000000000000000000000000000000000000000000000606482015290519081900360840190fd5b6008805460ff191660029081179091555460048054604080517f42966c680000000000000000000000000000000000000000000000000000000081529283019190915251600160a060020a03909216916342966c689160248082019260009290919082900301818387803b1580156107a657600080fd5b505af11580156107ba573d6000803e3d6000fd5b503392505050ff5b6005805460408051602060026001851615610100026000190190941693909304601f810184900484028201840190925281815292918301828280156108485780601f1061081d57610100808354040283529160200191610848565b820191906000526020600020905b81548152906001019060200180831161082b57829003601f168201915b505050505081565b600054600160a060020a031681565b60065481565b600154600160a060020a031633146108c7576040805160e560020a62461bcd02815260206004820152601e60248201527f4f6e6c792074686520646f6e61746f722063616e2063616c6c20746869730000604482015290519081900360640190fd5b6007544211610920576040805160e560020a62461bcd02815260206004820152601960248201527f31207765656b20686173206e6f74207061737365642079657400000000000000604482015290519081900360640190fd5b60025460015460048054604080517fa9059cbb000000000000000000000000000000000000000000000000000000008152600160a060020a0394851693810193909352602483019190915251919092169163a9059cbb9160448083019260209291908290030181600087803b1580156104d557600080fd5b60075481565b60085460ff1681565b6000808060085460ff1660028111156109bc57fe5b146109ff576040805160e560020a62461bcd02815260206004820152600e6024820152600080516020610a8e833981519152604482015290519081900360640190fd5b600054600160a060020a03163314610a61576040805160e560020a62461bcd02815260206004820152601e60248201527f4f6e6c7920746f6b656e206f776e65722063616e2063616c6c20746869730000604482015290519081900360640190fd5b50506008805460ff1916600217905562093a804201600755600190565b600254600160a060020a03168156fe496e76616c69642073746174652e000000000000000000000000000000000000a165627a7a72305820537114a0f6b7f09b472e26f6dd24ccb225b1942f50bba776cc719d5d792fbf9b0029a165627a7a72305820caea28dc286875556f53f352b13fe12f521c999931e55d301668577058a95b5e0029a165627a7a7230582028844a3b3667f7e06af217b68b9957cc47c8b689de83b824d4206a5b3ede7d690029",
  "source": "pragma solidity ^0.5.0;\nimport \"openzeppelin-solidity/contracts/math/SafeMath.sol\";\n\n// import \"openzeppelin-solidity/contracts/token/ERC20/IERC20.sol\";\n// import \"openzeppelin-solidity/contracts/token/ERC20/SafeERC20.sol\";\nimport \"./Registration.sol\";\n\nimport \"./AtaaToken.sol\";\nimport \"./NewToken.sol\";\nimport \"./YallaGiveAdmins.sol\";\n\n// import \"./AtaaToken.sol\";\n\n// use WhitelistedRole\n\n// we should use safe math for ath operation \n// shouldn't be inhirit , only import as we did in vuuple\ncontract TokenFactory  {\n    using SafeMath for uint;\n        // using SafeERC20 for IERC20;\n YallaGiveAdmins public YgAdmins;\n\n    address  public owner;\n    address[] public newTokens;\n    // change varaible name to be meaningful // done by Eman Herawy\n    AtaaToken public attaToken;\n    Registration public registration;\n   modifier isOrg(address ChrtyOrg){\n        require(registration.isOrg(ChrtyOrg), \"Not authorized to create new tokens.\");\n         _;\n    }\n   //managing clients should be in registeration contract , and here we can import the contract and use its functions  // done by eman herawy\n\n    constructor(AtaaToken _attaToken, YallaGiveAdmins _yallaAdmin , Registration _registration) public {\n        owner = msg.sender;\n        attaToken = _attaToken;\n        YgAdmins = _yallaAdmin;\n        registration = _registration;\n    }\n\n\n    /**\n    only cntract should call this function \" make it exteranl\"\n    only whitelisted account can call it \" add modifier\n\n     */\n  // ask maged about the rate , it should be static constant value\n    // decalr a const RATE varibale \n    // user should send amount of atta coint to fuel thier operation  as a AttacoinAmount func param \n  // any charity should call increaseAllowance and add this contract address  with the amount of attacoin first \n  // if no token is  in allowance or AttacoinAmount is larger than the allowance they set , it should revert  \n// string memory name, string memory symbol, uint8 decimals, uint256 cap, uint256 rate ,address owner ,  IERC20 token\n   function createNewToken(string calldata name, string calldata symbol, uint8 decimals, uint256  toPayAtaa, uint256 price)\n    external isOrg(msg.sender) returns( address ) {\n     // max total supply \" hard cap \" = AttacoinAmount * rate\n     // should call allowance function to  see how much token in allowance and compare it with  \n     // pass msg.sender as the owner parm in allowance function\n     // contract should call burnFrom function to burn atta coin first and create the new cntract \n\n     require(attaToken.allowance(msg.sender, address(this)) >= toPayAtaa, \"More Funds are needed.\");\n     // this should be a modefier in my opnion \n     // moved to registeration contract **** require(clients[msg.sender].status == Authorization.approved, \"Not authorized to create new tokens.\");\n    \n  uint256 cap = toPayAtaa.mul(price);\n   \nrequire(_tokenBurn(  msg.sender, toPayAtaa), \"can't burn token, please check that the factory contract allowence\"); \n     address T = address(new NewToken(name, symbol, decimals, cap, price , msg.sender,attaToken,YgAdmins));\n    // clients[msg.sender].ownedTokens.push(T);\n     newTokens.push(T);\n     return T;\n\n    }\n\n    // TODO: we need to find a way to handel the named token that sent to admin account\n   function exchangeToken( address tokentobuy , address tokenToSell , uint256 amount, address sender)\n    external returns(bool){\n\n     require(attaToken.allowance(sender, address(this)) >= amount, \"More Funds are needed.\");\n\n    return true;\n   }\n   \n\n// function _sendTokenToAdmin(address tokenAddress, uint256 amount) internal returns bool{\n\n// }\n// function _sendAttaToOrg(address orgOwner, uint256 amount) internal returns bool{\n\n// }\n\nfunction sendTokenToFactory(NewToken tokenToSell  , uint256 amount) external returns (bool){\n         require(tokenToSell.allowance(msg.sender, address(this)) >= amount, \"More Funds are needed.\");\n\n    tokenToSell.transfer(owner,amount);\n    uint256 rate = tokenToSell.rate();\n require(   _mintAttaCoin(msg.sender,amount.div(rate)),\"couldn't mint atta coin\");\n    return true;\n}\nfunction _tokenBurn( address sender,uint256  toPayAtaa ) internal returns (bool){\n     attaToken.burnFrom(msg.sender, toPayAtaa);\n     return true;\n\n}\n\n     function getAllTokenContracts() public view returns (address[] memory) {\n      return newTokens;\n   }\n\n   function _mintAttaCoin(address beneficiary, uint256 amount) internal returns (bool){\n       attaToken.mint(beneficiary,  amount);\n       return true;\n   } \n   // TODO : \n   //  function getTokenContractsFor(address tokensOwner)public view returns (address[] memory) {\n   //    return clients[tokensOwner].ownedTokens;\n   // }   \n}\n",
  "sourcePath": "/home/youssef/Desktop/yallagive/tokenbackend/contracts/TokenFactory.sol",
  "compiler": {
    "name": "solc",
    "version": "0.5.0+commit.1d4f565a.Linux.g++"
  },
  "schemaVersion": "3.0.16",
  "updatedAt": "2019-10-24T08:21:20.613Z",
  "devdoc": {
    "methods": {}
  },
  "userdoc": {
    "methods": {
      "createNewToken(string,string,uint8,uint256,uint256)": {
        "notice": "only cntract should call this function \" make it exteranl\" only whitelisted account can call it \" add modifier"
      }
    }
  }
}