{
  "contractName": "tokenFactory",
  "abi": [
    {
      "constant": true,
      "inputs": [],
      "name": "name",
      "outputs": [
        {
          "name": "",
          "type": "string"
        }
      ],
      "payable": false,
      "stateMutability": "view",
      "type": "function"
    },
    {
      "constant": false,
      "inputs": [
        {
          "name": "spender",
          "type": "address"
        },
        {
          "name": "value",
          "type": "uint256"
        }
      ],
      "name": "approve",
      "outputs": [
        {
          "name": "",
          "type": "bool"
        }
      ],
      "payable": false,
      "stateMutability": "nonpayable",
      "type": "function"
    },
    {
      "constant": true,
      "inputs": [],
      "name": "totalSupply",
      "outputs": [
        {
          "name": "",
          "type": "uint256"
        }
      ],
      "payable": false,
      "stateMutability": "view",
      "type": "function"
    },
    {
      "constant": false,
      "inputs": [
        {
          "name": "sender",
          "type": "address"
        },
        {
          "name": "recipient",
          "type": "address"
        },
        {
          "name": "amount",
          "type": "uint256"
        }
      ],
      "name": "transferFrom",
      "outputs": [
        {
          "name": "",
          "type": "bool"
        }
      ],
      "payable": false,
      "stateMutability": "nonpayable",
      "type": "function"
    },
    {
      "constant": true,
      "inputs": [
        {
          "name": "",
          "type": "uint256"
        }
      ],
      "name": "newTokens",
      "outputs": [
        {
          "name": "",
          "type": "address"
        }
      ],
      "payable": false,
      "stateMutability": "view",
      "type": "function"
    },
    {
      "constant": true,
      "inputs": [],
      "name": "INITIAL_SUPPLY",
      "outputs": [
        {
          "name": "",
          "type": "uint256"
        }
      ],
      "payable": false,
      "stateMutability": "view",
      "type": "function"
    },
    {
      "constant": true,
      "inputs": [],
      "name": "decimals",
      "outputs": [
        {
          "name": "",
          "type": "uint8"
        }
      ],
      "payable": false,
      "stateMutability": "view",
      "type": "function"
    },
    {
      "constant": true,
      "inputs": [],
      "name": "cap",
      "outputs": [
        {
          "name": "",
          "type": "uint256"
        }
      ],
      "payable": false,
      "stateMutability": "view",
      "type": "function"
    },
    {
      "constant": false,
      "inputs": [
        {
          "name": "spender",
          "type": "address"
        },
        {
          "name": "addedValue",
          "type": "uint256"
        }
      ],
      "name": "increaseAllowance",
      "outputs": [
        {
          "name": "",
          "type": "bool"
        }
      ],
      "payable": false,
      "stateMutability": "nonpayable",
      "type": "function"
    },
    {
      "constant": false,
      "inputs": [
        {
          "name": "account",
          "type": "address"
        },
        {
          "name": "amount",
          "type": "uint256"
        }
      ],
      "name": "mint",
      "outputs": [
        {
          "name": "",
          "type": "bool"
        }
      ],
      "payable": false,
      "stateMutability": "nonpayable",
      "type": "function"
    },
    {
      "constant": false,
      "inputs": [
        {
          "name": "amount",
          "type": "uint256"
        }
      ],
      "name": "burn",
      "outputs": [],
      "payable": false,
      "stateMutability": "nonpayable",
      "type": "function"
    },
    {
      "constant": true,
      "inputs": [
        {
          "name": "account",
          "type": "address"
        }
      ],
      "name": "balanceOf",
      "outputs": [
        {
          "name": "",
          "type": "uint256"
        }
      ],
      "payable": false,
      "stateMutability": "view",
      "type": "function"
    },
    {
      "constant": false,
      "inputs": [
        {
          "name": "account",
          "type": "address"
        },
        {
          "name": "amount",
          "type": "uint256"
        }
      ],
      "name": "burnFrom",
      "outputs": [],
      "payable": false,
      "stateMutability": "nonpayable",
      "type": "function"
    },
    {
      "constant": true,
      "inputs": [],
      "name": "symbol",
      "outputs": [
        {
          "name": "",
          "type": "string"
        }
      ],
      "payable": false,
      "stateMutability": "view",
      "type": "function"
    },
    {
      "constant": false,
      "inputs": [
        {
          "name": "account",
          "type": "address"
        }
      ],
      "name": "addMinter",
      "outputs": [],
      "payable": false,
      "stateMutability": "nonpayable",
      "type": "function"
    },
    {
      "constant": false,
      "inputs": [],
      "name": "renounceMinter",
      "outputs": [],
      "payable": false,
      "stateMutability": "nonpayable",
      "type": "function"
    },
    {
      "constant": false,
      "inputs": [
        {
          "name": "spender",
          "type": "address"
        },
        {
          "name": "subtractedValue",
          "type": "uint256"
        }
      ],
      "name": "decreaseAllowance",
      "outputs": [
        {
          "name": "",
          "type": "bool"
        }
      ],
      "payable": false,
      "stateMutability": "nonpayable",
      "type": "function"
    },
    {
      "constant": false,
      "inputs": [
        {
          "name": "recipient",
          "type": "address"
        },
        {
          "name": "amount",
          "type": "uint256"
        }
      ],
      "name": "transfer",
      "outputs": [
        {
          "name": "",
          "type": "bool"
        }
      ],
      "payable": false,
      "stateMutability": "nonpayable",
      "type": "function"
    },
    {
      "constant": true,
      "inputs": [
        {
          "name": "account",
          "type": "address"
        }
      ],
      "name": "isMinter",
      "outputs": [
        {
          "name": "",
          "type": "bool"
        }
      ],
      "payable": false,
      "stateMutability": "view",
      "type": "function"
    },
    {
      "constant": true,
      "inputs": [
        {
          "name": "owner",
          "type": "address"
        },
        {
          "name": "spender",
          "type": "address"
        }
      ],
      "name": "allowance",
      "outputs": [
        {
          "name": "",
          "type": "uint256"
        }
      ],
      "payable": false,
      "stateMutability": "view",
      "type": "function"
    },
    {
      "anonymous": false,
      "inputs": [
        {
          "indexed": true,
          "name": "account",
          "type": "address"
        }
      ],
      "name": "MinterAdded",
      "type": "event"
    },
    {
      "anonymous": false,
      "inputs": [
        {
          "indexed": true,
          "name": "account",
          "type": "address"
        }
      ],
      "name": "MinterRemoved",
      "type": "event"
    },
    {
      "anonymous": false,
      "inputs": [
        {
          "indexed": true,
          "name": "from",
          "type": "address"
        },
        {
          "indexed": true,
          "name": "to",
          "type": "address"
        },
        {
          "indexed": false,
          "name": "value",
          "type": "uint256"
        }
      ],
      "name": "Transfer",
      "type": "event"
    },
    {
      "anonymous": false,
      "inputs": [
        {
          "indexed": true,
          "name": "owner",
          "type": "address"
        },
        {
          "indexed": true,
          "name": "spender",
          "type": "address"
        },
        {
          "indexed": false,
          "name": "value",
          "type": "uint256"
        }
      ],
      "name": "Approval",
      "type": "event"
    },
    {
      "constant": false,
      "inputs": [
        {
          "name": "AtaaCoinAmount",
          "type": "uint256"
        }
      ],
      "name": "factoryApproval",
      "outputs": [],
      "payable": false,
      "stateMutability": "nonpayable",
      "type": "function"
    },
    {
      "constant": false,
      "inputs": [
        {
          "name": "addedAtaaCoin",
          "type": "uint256"
        }
      ],
      "name": "increaseFactoryAllowance",
      "outputs": [],
      "payable": false,
      "stateMutability": "nonpayable",
      "type": "function"
    },
    {
      "constant": false,
      "inputs": [
        {
          "name": "subAtaaCoin",
          "type": "uint256"
        }
      ],
      "name": "decreaseFactoryAllowance",
      "outputs": [],
      "payable": false,
      "stateMutability": "nonpayable",
      "type": "function"
    },
    {
      "constant": true,
      "inputs": [],
      "name": "allowedAtaa",
      "outputs": [
        {
          "name": "",
          "type": "uint256"
        }
      ],
      "payable": false,
      "stateMutability": "view",
      "type": "function"
    },
    {
      "constant": false,
      "inputs": [
        {
          "name": "INITIAL_SUPPLY",
          "type": "uint256"
        },
        {
          "name": "name",
          "type": "string"
        },
        {
          "name": "symbol",
          "type": "string"
        },
        {
          "name": "decimals",
          "type": "uint8"
        },
        {
          "name": "toPayAtaa",
          "type": "uint256"
        },
        {
          "name": "price",
          "type": "uint256"
        }
      ],
      "name": "createNewToken",
      "outputs": [],
      "payable": true,
      "stateMutability": "payable",
      "type": "function"
    },
    {
      "constant": true,
      "inputs": [],
      "name": "getDeployedTokenContracts",
      "outputs": [
        {
          "name": "",
          "type": "address[]"
        }
      ],
      "payable": false,
      "stateMutability": "view",
      "type": "function"
    }
  ],
  "bytecode": "0x60c0604052600460808190527f417461610000000000000000000000000000000000000000000000000000000060a09081526200004091600591906200064b565b506040805180820190915260038082527f6174610000000000000000000000000000000000000000000000000000000000602090920191825262000087916006916200064b565b506007805460ff19166002179055612ee0600855614e2080620000b33364010000000062000147810204565b600081116200012357604080517f08c379a000000000000000000000000000000000000000000000000000000000815260206004820152601560248201527f45524332304361707065643a2063617020697320300000000000000000000000604482015290519081900360640190fd5b6004556008546200013f90339064010000000062000199810204565b5050620006ed565b62000162600382640100000000620016f86200026182021704565b604051600160a060020a038216907f6ae172837ea30b801fbfcdd4108aa1d5bf8ff775444fd70256b44e6bf3dfc3f690600090a250565b6000620001af3364010000000062000308810204565b15156200024357604080517f08c379a000000000000000000000000000000000000000000000000000000000815260206004820152603060248201527f4d696e746572526f6c653a2063616c6c657220646f6573206e6f74206861766560448201527f20746865204d696e74657220726f6c6500000000000000000000000000000000606482015290519081900360840190fd5b6200025883836401000000006200032b810204565b50600192915050565b620002768282640100000000620003e7810204565b15620002e357604080517f08c379a000000000000000000000000000000000000000000000000000000000815260206004820152601f60248201527f526f6c65733a206163636f756e7420616c72656164792068617320726f6c6500604482015290519081900360640190fd5b600160a060020a0316600090815260209190915260409020805460ff19166001179055565b60006200032560038364010000000062001555620003e782021704565b92915050565b6004546200035b8262000346640100000000620004a7810204565b9064010000000062001271620004ae82021704565b1115620003c957604080517f08c379a000000000000000000000000000000000000000000000000000000000815260206004820152601960248201527f45524332304361707065643a2063617020657863656564656400000000000000604482015290519081900360640190fd5b620003e38282640100000000620015fe6200052a82021704565b5050565b6000600160a060020a03821615156200048757604080517f08c379a000000000000000000000000000000000000000000000000000000000815260206004820152602260248201527f526f6c65733a206163636f756e7420697320746865207a65726f20616464726560448201527f7373000000000000000000000000000000000000000000000000000000000000606482015290519081900360840190fd5b50600160a060020a03166000908152602091909152604090205460ff1690565b6002545b90565b6000828201838110156200052357604080517f08c379a000000000000000000000000000000000000000000000000000000000815260206004820152601b60248201527f536166654d6174683a206164646974696f6e206f766572666c6f770000000000604482015290519081900360640190fd5b9392505050565b600160a060020a0382161515620005a257604080517f08c379a000000000000000000000000000000000000000000000000000000000815260206004820152601f60248201527f45524332303a206d696e7420746f20746865207a65726f206164647265737300604482015290519081900360640190fd5b600254620005bf908264010000000062001271620004ae82021704565b600255600160a060020a038216600090815260208190526040902054620005f5908264010000000062001271620004ae82021704565b600160a060020a0383166000818152602081815260408083209490945583518581529351929391927fddf252ad1be2c89b69c2b068fc378daa952ba7f163c4a11628f55a4df523b3ef9281900390910190a35050565b828054600181600116156101000203166002900490600052602060002090601f016020900481019282601f106200068e57805160ff1916838001178555620006be565b82800160010185558215620006be579182015b82811115620006be578251825591602001919060010190620006a1565b50620006cc929150620006d0565b5090565b620004ab91905b80821115620006cc5760008155600101620006d7565b61312d80620006fd6000396000f3fe6080604052600436106200016e5763ffffffff7c010000000000000000000000000000000000000000000000000000000060003504166306fdde03811462000173578063092eb9891462000203578063095ea7b3146200022d57806318160ddd146200027e57806323b872dd14620002965780632b8ded4614620002dd5780632ff2e9dc1462000327578063313ce567146200033f578063355274ea146200036d57806339509351146200038557806340c10f1914620003c257806342966c6814620003ff5780634351cc0b146200042f5780634668a655146200045d57806370a0823114620005a8578063782bb6d214620005df57806379cc6790146200060d57806395d89b41146200064a578063983b2d561462000662578063986502751462000699578063a457c2d714620006b1578063a9059cbb14620006ee578063aa271e1a146200072b578063b3e086a01462000762578063dd62ed3e14620007cc578063ed43b558146200080b575b600080fd5b3480156200018057600080fd5b506200018b62000839565b6040805160208082528351818301528351919283929083019185019080838360005b83811015620001c7578181015183820152602001620001ad565b50505050905090810190601f168015620001f55780820380516001836020036101000a031916815260200191505b509250505060405180910390f35b3480156200021057600080fd5b506200021b620008cb565b60408051918252519081900360200190f35b3480156200023a57600080fd5b506200026a600480360360408110156200025357600080fd5b50600160a060020a038135169060200135620008de565b604080519115158252519081900360200190f35b3480156200028b57600080fd5b506200021b620008f6565b348015620002a357600080fd5b506200026a60048036036060811015620002bc57600080fd5b50600160a060020a03813581169160208101359091169060400135620008fc565b348015620002ea57600080fd5b506200030b600480360360208110156200030357600080fd5b503562000959565b60408051600160a060020a039092168252519081900360200190f35b3480156200033457600080fd5b506200021b62000982565b3480156200034c57600080fd5b506200035762000988565b6040805160ff9092168252519081900360200190f35b3480156200037a57600080fd5b506200021b62000991565b3480156200039257600080fd5b506200026a60048036036040811015620003ab57600080fd5b50600160a060020a03813516906020013562000997565b348015620003cf57600080fd5b506200026a60048036036040811015620003e857600080fd5b50600160a060020a038135169060200135620009d6565b3480156200040c57600080fd5b506200042d600480360360208110156200042557600080fd5b503562000a6c565b005b3480156200043c57600080fd5b506200042d600480360360208110156200045557600080fd5b503562000a7b565b6200042d600480360360c08110156200047557600080fd5b813591908101906040810160208201356401000000008111156200049857600080fd5b820183602082011115620004ab57600080fd5b80359060200191846001830284011164010000000083111715620004ce57600080fd5b91908080601f01602080910402602001604051908101604052809392919081815260200183838082843760009201919091525092959493602081019350359150506401000000008111156200052257600080fd5b8201836020820111156200053557600080fd5b803590602001918460018302840111640100000000831117156200055857600080fd5b91908080601f0160208091040260200160405190810160405280939291908181526020018383808284376000920191909152509295505060ff833516935050506020810135906040013562000a8b565b348015620005b557600080fd5b506200021b60048036036020811015620005ce57600080fd5b5035600160a060020a031662000ca2565b348015620005ec57600080fd5b506200042d600480360360208110156200060557600080fd5b503562000cbd565b3480156200061a57600080fd5b506200042d600480360360408110156200063357600080fd5b50600160a060020a03813516906020013562000cc9565b3480156200065757600080fd5b506200018b62000cd5565b3480156200066f57600080fd5b506200042d600480360360208110156200068857600080fd5b5035600160a060020a031662000d33565b348015620006a657600080fd5b506200042d62000dc6565b348015620006be57600080fd5b506200026a60048036036040811015620006d757600080fd5b50600160a060020a03813516906020013562000dd3565b348015620006fb57600080fd5b506200026a600480360360408110156200071457600080fd5b50600160a060020a03813516906020013562000e12565b3480156200073857600080fd5b506200026a600480360360208110156200075157600080fd5b5035600160a060020a031662000e21565b3480156200076f57600080fd5b506200077a62000e3c565b60408051602080825283518183015283519192839290830191858101910280838360005b83811015620007b85781810151838201526020016200079e565b505050509050019250505060405180910390f35b348015620007d957600080fd5b506200021b60048036036040811015620007f257600080fd5b50600160a060020a038135811691602001351662000ea0565b3480156200081857600080fd5b506200042d600480360360208110156200083157600080fd5b503562000ecb565b6005805460408051602060026001851615610100026000190190941693909304601f81018490048402820184019092528181529291830182828015620008c35780601f106200089757610100808354040283529160200191620008c3565b820191906000526020600020905b815481529060010190602001808311620008a557829003601f168201915b505050505081565b6000620008d9333062000ea0565b905090565b6000620008ed33848462000ed7565b50600192915050565b60025490565b60006200090b84848462001046565b600160a060020a0384166000908152600160209081526040808320338085529252909120546200094f91869162000949908663ffffffff6200121016565b62000ed7565b5060019392505050565b60098054829081106200096857fe5b600091825260209091200154600160a060020a0316905081565b60085481565b60075460ff1681565b60045490565b336000818152600160209081526040808320600160a060020a03871684529091528120549091620008ed91859062000949908663ffffffff6200127116565b6000620009e33362000e21565b151562000a60576040805160e560020a62461bcd02815260206004820152603060248201527f4d696e746572526f6c653a2063616c6c657220646f6573206e6f74206861766560448201527f20746865204d696e74657220726f6c6500000000000000000000000000000000606482015290519081900360840190fd5b620008ed8383620012d6565b62000a78338262001358565b50565b62000a87308262000997565b5050565b600062000a99333062000ea0565b90508282028382101562000af7576040805160e560020a62461bcd02815260206004820152601660248201527f4d6f72652046756e647320617265206e65656465642e00000000000000000000604482015290519081900360640190fd5b62000b03338562001358565b62000b0f308562000dd3565b50600088888888858862000b226200182a565b8087815260200180602001806020018660ff1660ff168152602001858152602001848152602001838103835288818151815260200191508051906020019080838360005b8381101562000b8057818101518382015260200162000b66565b50505050905090810190601f16801562000bae5780820380516001836020036101000a031916815260200191505b50838103825287518152875160209182019189019080838360005b8381101562000be357818101518382015260200162000bc9565b50505050905090810190601f16801562000c115780820380516001836020036101000a031916815260200191505b5098505050505050505050604051809103906000f08015801562000c39573d6000803e3d6000fd5b50600980546001810182556000919091527f6e1540171b6c0c960b71a7020d9f60077f6af931a8bbf590da0223dacf75c7af01805473ffffffffffffffffffffffffffffffffffffffff1916600160a060020a0392909216919091179055505050505050505050565b600160a060020a031660009081526020819052604090205490565b62000a87308262000dd3565b62000a87828262001477565b6006805460408051602060026001851615610100026000190190941693909304601f81018490048402820184019092528181529291830182828015620008c35780601f106200089757610100808354040283529160200191620008c3565b62000d3e3362000e21565b151562000dbb576040805160e560020a62461bcd02815260206004820152603060248201527f4d696e746572526f6c653a2063616c6c657220646f6573206e6f74206861766560448201527f20746865204d696e74657220726f6c6500000000000000000000000000000000606482015290519081900360840190fd5b62000a7881620014c1565b62000dd1336200150b565b565b336000818152600160209081526040808320600160a060020a03871684529091528120549091620008ed91859062000949908663ffffffff6200121016565b6000620008ed33848462001046565b600062000e3660038363ffffffff6200155516565b92915050565b6060600980548060200260200160405190810160405280929190818152602001828054801562000e9657602002820191906000526020600020905b8154600160a060020a0316815260019091019060200180831162000e77575b5050505050905090565b600160a060020a03918216600090815260016020908152604080832093909416825291909152205490565b62000a873082620008de565b600160a060020a038316151562000f5d576040805160e560020a62461bcd028152602060048201526024808201527f45524332303a20617070726f76652066726f6d20746865207a65726f2061646460448201527f7265737300000000000000000000000000000000000000000000000000000000606482015290519081900360840190fd5b600160a060020a038216151562000fe4576040805160e560020a62461bcd02815260206004820152602260248201527f45524332303a20617070726f766520746f20746865207a65726f20616464726560448201527f7373000000000000000000000000000000000000000000000000000000000000606482015290519081900360840190fd5b600160a060020a03808416600081815260016020908152604080832094871680845294825291829020859055815185815291517f8c5be1e5ebec7d5bd14f71427d1e84f3dd0314c0f7b2291e5b200ac8c7c3b9259281900390910190a3505050565b600160a060020a0383161515620010cd576040805160e560020a62461bcd02815260206004820152602560248201527f45524332303a207472616e736665722066726f6d20746865207a65726f20616460448201527f6472657373000000000000000000000000000000000000000000000000000000606482015290519081900360840190fd5b600160a060020a038216151562001154576040805160e560020a62461bcd02815260206004820152602360248201527f45524332303a207472616e7366657220746f20746865207a65726f206164647260448201527f6573730000000000000000000000000000000000000000000000000000000000606482015290519081900360840190fd5b600160a060020a0383166000908152602081905260409020546200117f908263ffffffff6200121016565b600160a060020a038085166000908152602081905260408082209390935590841681522054620011b6908263ffffffff6200127116565b600160a060020a038084166000818152602081815260409182902094909455805185815290519193928716927fddf252ad1be2c89b69c2b068fc378daa952ba7f163c4a11628f55a4df523b3ef92918290030190a3505050565b6000828211156200126b576040805160e560020a62461bcd02815260206004820152601e60248201527f536166654d6174683a207375627472616374696f6e206f766572666c6f770000604482015290519081900360640190fd5b50900390565b600082820183811015620012cf576040805160e560020a62461bcd02815260206004820152601b60248201527f536166654d6174683a206164646974696f6e206f766572666c6f770000000000604482015290519081900360640190fd5b9392505050565b600454620012f582620012e8620008f6565b9063ffffffff6200127116565b11156200134c576040805160e560020a62461bcd02815260206004820152601960248201527f45524332304361707065643a2063617020657863656564656400000000000000604482015290519081900360640190fd5b62000a878282620015fe565b600160a060020a0382161515620013df576040805160e560020a62461bcd02815260206004820152602160248201527f45524332303a206275726e2066726f6d20746865207a65726f2061646472657360448201527f7300000000000000000000000000000000000000000000000000000000000000606482015290519081900360840190fd5b600254620013f4908263ffffffff6200121016565b600255600160a060020a03821660009081526020819052604090205462001422908263ffffffff6200121016565b600160a060020a038316600081815260208181526040808320949094558351858152935191937fddf252ad1be2c89b69c2b068fc378daa952ba7f163c4a11628f55a4df523b3ef929081900390910190a35050565b62001483828262001358565b600160a060020a03821660009081526001602090815260408083203380855292529091205462000a8791849162000949908563ffffffff6200121016565b620014d460038263ffffffff620016f816565b604051600160a060020a038216907f6ae172837ea30b801fbfcdd4108aa1d5bf8ff775444fd70256b44e6bf3dfc3f690600090a250565b6200151e60038263ffffffff6200177f16565b604051600160a060020a038216907fe94479a9f7e1952cc78f2d6baab678adc1b772d936c6583def489e524cb6669290600090a250565b6000600160a060020a0382161515620015de576040805160e560020a62461bcd02815260206004820152602260248201527f526f6c65733a206163636f756e7420697320746865207a65726f20616464726560448201527f7373000000000000000000000000000000000000000000000000000000000000606482015290519081900360840190fd5b50600160a060020a03166000908152602091909152604090205460ff1690565b600160a060020a03821615156200165f576040805160e560020a62461bcd02815260206004820152601f60248201527f45524332303a206d696e7420746f20746865207a65726f206164647265737300604482015290519081900360640190fd5b60025462001674908263ffffffff6200127116565b600255600160a060020a038216600090815260208190526040902054620016a2908263ffffffff6200127116565b600160a060020a0383166000818152602081815260408083209490945583518581529351929391927fddf252ad1be2c89b69c2b068fc378daa952ba7f163c4a11628f55a4df523b3ef9281900390910190a35050565b62001704828262001555565b156200175a576040805160e560020a62461bcd02815260206004820152601f60248201527f526f6c65733a206163636f756e7420616c72656164792068617320726f6c6500604482015290519081900360640190fd5b600160a060020a0316600090815260209190915260409020805460ff19166001179055565b6200178b828262001555565b151562001808576040805160e560020a62461bcd02815260206004820152602160248201527f526f6c65733a206163636f756e7420646f6573206e6f74206861766520726f6c60448201527f6500000000000000000000000000000000000000000000000000000000000000606482015290519081900360840190fd5b600160a060020a0316600090815260209190915260409020805460ff19169055565b6040516118c6806200183c8339019056fe60806040523480156200001157600080fd5b50604051620018c6380380620018c6833981018060405260c08110156200003757600080fd5b8151602083018051919392830192916401000000008111156200005957600080fd5b820160208101848111156200006d57600080fd5b81516401000000008111828201871017156200008857600080fd5b50509291906020018051640100000000811115620000a557600080fd5b82016020810184811115620000b957600080fd5b8151640100000000811182820187101715620000d457600080fd5b5050602080830151604084015160609094015187519396509094509183918791879187916200010a916000919086019062000605565b5081516200012090600190602085019062000605565b506002805460ff191660ff92909216919091179055506200014c905033640100000000620001ea810204565b60008111620001bc57604080517f08c379a000000000000000000000000000000000000000000000000000000000815260206004820152601560248201527f45524332304361707065643a2063617020697320300000000000000000000000604482015290519081900360640190fd5b60075560098690556008819055620001de33876401000000006200023c810204565b505050505050620006a7565b62000205600682640100000000620010b7620002f882021704565b604051600160a060020a038216907f6ae172837ea30b801fbfcdd4108aa1d5bf8ff775444fd70256b44e6bf3dfc3f690600090a250565b6007546200026c82620002576401000000006200039f810204565b9064010000000062000c48620003a682021704565b1115620002da57604080517f08c379a000000000000000000000000000000000000000000000000000000000815260206004820152601960248201527f45524332304361707065643a2063617020657863656564656400000000000000604482015290519081900360640190fd5b620002f4828264010000000062000fc06200042282021704565b5050565b6200030d828264010000000062000545810204565b156200037a57604080517f08c379a000000000000000000000000000000000000000000000000000000000815260206004820152601f60248201527f526f6c65733a206163636f756e7420616c72656164792068617320726f6c6500604482015290519081900360640190fd5b600160a060020a0316600090815260209190915260409020805460ff19166001179055565b6005545b90565b6000828201838110156200041b57604080517f08c379a000000000000000000000000000000000000000000000000000000000815260206004820152601b60248201527f536166654d6174683a206164646974696f6e206f766572666c6f770000000000604482015290519081900360640190fd5b9392505050565b600160a060020a03821615156200049a57604080517f08c379a000000000000000000000000000000000000000000000000000000000815260206004820152601f60248201527f45524332303a206d696e7420746f20746865207a65726f206164647265737300604482015290519081900360640190fd5b600554620004b7908264010000000062000c48620003a682021704565b600555600160a060020a038216600090815260036020526040902054620004ed908264010000000062000c48620003a682021704565b600160a060020a03831660008181526003602090815260408083209490945583518581529351929391927fddf252ad1be2c89b69c2b068fc378daa952ba7f163c4a11628f55a4df523b3ef9281900390910190a35050565b6000600160a060020a0382161515620005e557604080517f08c379a000000000000000000000000000000000000000000000000000000000815260206004820152602260248201527f526f6c65733a206163636f756e7420697320746865207a65726f20616464726560448201527f7373000000000000000000000000000000000000000000000000000000000000606482015290519081900360840190fd5b50600160a060020a03166000908152602091909152604090205460ff1690565b828054600181600116156101000203166002900490600052602060002090601f016020900481019282601f106200064857805160ff191683800117855562000678565b8280016001018555821562000678579182015b82811115620006785782518255916020019190600101906200065b565b50620006869291506200068a565b5090565b620003a391905b8082111562000686576000815560010162000691565b61120f80620006b76000396000f3fe6080604052600436106101115763ffffffff7c010000000000000000000000000000000000000000000000000000000060003504166306fdde038114610116578063095ea7b3146101a057806318160ddd146101ed578063235b6ea11461021457806323b872dd14610229578063313ce5671461026c578063355274ea1461029757806339509351146102ac57806340c10f19146102e557806342966c681461031e57806370a082311461034a57806379cc67901461037d57806395d89b41146103b6578063983b2d56146103cb57806398650275146103fe578063a457c2d714610413578063a9059cbb1461044c578063aa271e1a14610485578063c3b2d337146104b8578063dd62ed3e146104cd575b600080fd5b34801561012257600080fd5b5061012b610508565b6040805160208082528351818301528351919283929083019185019080838360005b8381101561016557818101518382015260200161014d565b50505050905090810190601f1680156101925780820380516001836020036101000a031916815260200191505b509250505060405180910390f35b3480156101ac57600080fd5b506101d9600480360360408110156101c357600080fd5b50600160a060020a03813516906020013561059e565b604080519115158252519081900360200190f35b3480156101f957600080fd5b506102026105b4565b60408051918252519081900360200190f35b34801561022057600080fd5b506102026105ba565b34801561023557600080fd5b506101d96004803603606081101561024c57600080fd5b50600160a060020a038135811691602081013590911690604001356105c0565b34801561027857600080fd5b50610281610617565b6040805160ff9092168252519081900360200190f35b3480156102a357600080fd5b50610202610620565b3480156102b857600080fd5b506101d9600480360360408110156102cf57600080fd5b50600160a060020a038135169060200135610626565b3480156102f157600080fd5b506101d96004803603604081101561030857600080fd5b50600160a060020a038135169060200135610662565b34801561032a57600080fd5b506103486004803603602081101561034157600080fd5b50356106f3565b005b34801561035657600080fd5b506102026004803603602081101561036d57600080fd5b5035600160a060020a0316610700565b34801561038957600080fd5b50610348600480360360408110156103a057600080fd5b50600160a060020a03813516906020013561071b565b3480156103c257600080fd5b5061012b610729565b3480156103d757600080fd5b50610348600480360360208110156103ee57600080fd5b5035600160a060020a0316610789565b34801561040a57600080fd5b50610348610817565b34801561041f57600080fd5b506101d96004803603604081101561043657600080fd5b50600160a060020a038135169060200135610822565b34801561045857600080fd5b506101d96004803603604081101561046f57600080fd5b50600160a060020a03813516906020013561085e565b34801561049157600080fd5b506101d9600480360360208110156104a857600080fd5b5035600160a060020a031661086b565b3480156104c457600080fd5b50610202610884565b3480156104d957600080fd5b50610202600480360360408110156104f057600080fd5b50600160a060020a038135811691602001351661088a565b60008054604080516020601f60026000196101006001881615020190951694909404938401819004810282018101909252828152606093909290918301828280156105945780601f1061056957610100808354040283529160200191610594565b820191906000526020600020905b81548152906001019060200180831161057757829003601f168201915b5050505050905090565b60006105ab3384846108b5565b50600192915050565b60055490565b60085481565b60006105cd848484610a22565b600160a060020a03841660009081526004602090815260408083203380855292529091205461060d918691610608908663ffffffff610be816565b6108b5565b5060019392505050565b60025460ff1690565b60075490565b336000818152600460209081526040808320600160a060020a038716845290915281205490916105ab918590610608908663ffffffff610c4816565b600061066d3361086b565b15156106e9576040805160e560020a62461bcd02815260206004820152603060248201527f4d696e746572526f6c653a2063616c6c657220646f6573206e6f74206861766560448201527f20746865204d696e74657220726f6c6500000000000000000000000000000000606482015290519081900360840190fd5b6105ab8383610cac565b6106fd3382610d27565b50565b600160a060020a031660009081526003602052604090205490565b6107258282610e43565b5050565b60018054604080516020601f600260001961010087891615020190951694909404938401819004810282018101909252828152606093909290918301828280156105945780601f1061056957610100808354040283529160200191610594565b6107923361086b565b151561080e576040805160e560020a62461bcd02815260206004820152603060248201527f4d696e746572526f6c653a2063616c6c657220646f6573206e6f74206861766560448201527f20746865204d696e74657220726f6c6500000000000000000000000000000000606482015290519081900360840190fd5b6106fd81610e88565b61082033610ed0565b565b336000818152600460209081526040808320600160a060020a038716845290915281205490916105ab918590610608908663ffffffff610be816565b60006105ab338484610a22565b600061087e60068363ffffffff610f1816565b92915050565b60095481565b600160a060020a03918216600090815260046020908152604080832093909416825291909152205490565b600160a060020a038316151561093a576040805160e560020a62461bcd028152602060048201526024808201527f45524332303a20617070726f76652066726f6d20746865207a65726f2061646460448201527f7265737300000000000000000000000000000000000000000000000000000000606482015290519081900360840190fd5b600160a060020a03821615156109c0576040805160e560020a62461bcd02815260206004820152602260248201527f45524332303a20617070726f766520746f20746865207a65726f20616464726560448201527f7373000000000000000000000000000000000000000000000000000000000000606482015290519081900360840190fd5b600160a060020a03808416600081815260046020908152604080832094871680845294825291829020859055815185815291517f8c5be1e5ebec7d5bd14f71427d1e84f3dd0314c0f7b2291e5b200ac8c7c3b9259281900390910190a3505050565b600160a060020a0383161515610aa8576040805160e560020a62461bcd02815260206004820152602560248201527f45524332303a207472616e736665722066726f6d20746865207a65726f20616460448201527f6472657373000000000000000000000000000000000000000000000000000000606482015290519081900360840190fd5b600160a060020a0382161515610b2e576040805160e560020a62461bcd02815260206004820152602360248201527f45524332303a207472616e7366657220746f20746865207a65726f206164647260448201527f6573730000000000000000000000000000000000000000000000000000000000606482015290519081900360840190fd5b600160a060020a038316600090815260036020526040902054610b57908263ffffffff610be816565b600160a060020a038085166000908152600360205260408082209390935590841681522054610b8c908263ffffffff610c4816565b600160a060020a0380841660008181526003602090815260409182902094909455805185815290519193928716927fddf252ad1be2c89b69c2b068fc378daa952ba7f163c4a11628f55a4df523b3ef92918290030190a3505050565b600082821115610c42576040805160e560020a62461bcd02815260206004820152601e60248201527f536166654d6174683a207375627472616374696f6e206f766572666c6f770000604482015290519081900360640190fd5b50900390565b600082820183811015610ca5576040805160e560020a62461bcd02815260206004820152601b60248201527f536166654d6174683a206164646974696f6e206f766572666c6f770000000000604482015290519081900360640190fd5b9392505050565b600754610cc782610cbb6105b4565b9063ffffffff610c4816565b1115610d1d576040805160e560020a62461bcd02815260206004820152601960248201527f45524332304361707065643a2063617020657863656564656400000000000000604482015290519081900360640190fd5b6107258282610fc0565b600160a060020a0382161515610dad576040805160e560020a62461bcd02815260206004820152602160248201527f45524332303a206275726e2066726f6d20746865207a65726f2061646472657360448201527f7300000000000000000000000000000000000000000000000000000000000000606482015290519081900360840190fd5b600554610dc0908263ffffffff610be816565b600555600160a060020a038216600090815260036020526040902054610dec908263ffffffff610be816565b600160a060020a0383166000818152600360209081526040808320949094558351858152935191937fddf252ad1be2c89b69c2b068fc378daa952ba7f163c4a11628f55a4df523b3ef929081900390910190a35050565b610e4d8282610d27565b600160a060020a038216600090815260046020908152604080832033808552925290912054610725918491610608908563ffffffff610be816565b610e9960068263ffffffff6110b716565b604051600160a060020a038216907f6ae172837ea30b801fbfcdd4108aa1d5bf8ff775444fd70256b44e6bf3dfc3f690600090a250565b610ee160068263ffffffff61113b16565b604051600160a060020a038216907fe94479a9f7e1952cc78f2d6baab678adc1b772d936c6583def489e524cb6669290600090a250565b6000600160a060020a0382161515610fa0576040805160e560020a62461bcd02815260206004820152602260248201527f526f6c65733a206163636f756e7420697320746865207a65726f20616464726560448201527f7373000000000000000000000000000000000000000000000000000000000000606482015290519081900360840190fd5b50600160a060020a03166000908152602091909152604090205460ff1690565b600160a060020a0382161515611020576040805160e560020a62461bcd02815260206004820152601f60248201527f45524332303a206d696e7420746f20746865207a65726f206164647265737300604482015290519081900360640190fd5b600554611033908263ffffffff610c4816565b600555600160a060020a03821660009081526003602052604090205461105f908263ffffffff610c4816565b600160a060020a03831660008181526003602090815260408083209490945583518581529351929391927fddf252ad1be2c89b69c2b068fc378daa952ba7f163c4a11628f55a4df523b3ef9281900390910190a35050565b6110c18282610f18565b15611116576040805160e560020a62461bcd02815260206004820152601f60248201527f526f6c65733a206163636f756e7420616c72656164792068617320726f6c6500604482015290519081900360640190fd5b600160a060020a0316600090815260209190915260409020805460ff19166001179055565b6111458282610f18565b15156111c1576040805160e560020a62461bcd02815260206004820152602160248201527f526f6c65733a206163636f756e7420646f6573206e6f74206861766520726f6c60448201527f6500000000000000000000000000000000000000000000000000000000000000606482015290519081900360840190fd5b600160a060020a0316600090815260209190915260409020805460ff1916905556fea165627a7a72305820056efcefb3b52d5b79e68be43b11446c6d1681883170253ef85e3614e53993780029a165627a7a723058204c06cddf17c5e262074bb7cdce229f192bd0538cdf47d86ef16d7174e2355ea10029",
  "source": "pragma solidity ^0.5.0;\nimport \"openzeppelin-solidity/contracts/math/SafeMath.sol\";\nimport \"./newToken.sol\";\nimport \"./Ataa.sol\";\n\ncontract tokenFactory is Ataa(20000) {\n    address[] public newTokens;\n    \n    function factoryApproval(uint256 AtaaCoinAmount) public {\n       approve(address(this), AtaaCoinAmount);\n    }\n\n    function increaseFactoryAllowance(uint256 addedAtaaCoin) public {\n       increaseAllowance(address(this), addedAtaaCoin);\n    }\n\n    function decreaseFactoryAllowance(uint256 subAtaaCoin) public {\n       decreaseAllowance(address(this), subAtaaCoin);\n    }\n\n    function allowedAtaa() public view returns(uint256) {\n     return allowance(msg.sender, address(this));\n    }\n \n   //  function createNewToken(uint INITIAL_SUPPLY, string memory name, string memory symbol, uint8 decimals, uint256 cap, uint256 price)\n   //  public payable{\n   //   uint256 givenAtaaCoin = allowance(msg.sender, address(this));\n   //   uint256 neededAtaaCoin = cap/price;\n   //   require(givenAtaaCoin >= neededAtaaCoin, \"More Funds are needed.\");\n\n   //   _burn(msg.sender, neededAtaaCoin);\n \n   //    address T = address(new newToken(INITIAL_SUPPLY, name, symbol, decimals, cap, price));\n   //    newTokens.push(T);\n   //  }\n\n   function createNewToken(uint INITIAL_SUPPLY, string memory name, string memory symbol, uint8 decimals, uint256 toPayAtaa, uint256 price)\n    public payable{\n     uint256 givenAtaaCoin = allowance(msg.sender, address(this));\n     uint256 cap = toPayAtaa * price;\n     require(givenAtaaCoin >= toPayAtaa, \"More Funds are needed.\");\n\n     _burn(msg.sender, toPayAtaa);\n     decreaseAllowance(address(this), toPayAtaa);\n \n      address T = address(new newToken(INITIAL_SUPPLY, name, symbol, decimals, cap, price));\n      newTokens.push(T);\n    }\n\n   function getDeployedTokenContracts() public view returns (address[] memory) {\n      return newTokens;\n   }\n\n}",
  "sourcePath": "/home/youssef/Desktop/yallagive/tokenbackend/contracts/tokenFactory.sol",
  "compiler": {
    "name": "solc",
    "version": "0.5.0+commit.1d4f565a.Linux.g++"
  },
  "schemaVersion": "3.0.16",
  "updatedAt": "2019-09-19T16:42:02.887Z",
  "devdoc": {
    "methods": {
      "allowance(address,address)": {
        "details": "See `IERC20.allowance`."
      },
      "approve(address,uint256)": {
        "details": "See `IERC20.approve`.     * Requirements:     * - `spender` cannot be the zero address."
      },
      "balanceOf(address)": {
        "details": "See `IERC20.balanceOf`."
      },
      "burn(uint256)": {
        "details": "Destoys `amount` tokens from the caller.     * See `ERC20._burn`."
      },
      "burnFrom(address,uint256)": {
        "details": "See `ERC20._burnFrom`."
      },
      "cap()": {
        "details": "Returns the cap on the token's total supply."
      },
      "decreaseAllowance(address,uint256)": {
        "details": "Atomically decreases the allowance granted to `spender` by the caller.     * This is an alternative to `approve` that can be used as a mitigation for problems described in `IERC20.approve`.     * Emits an `Approval` event indicating the updated allowance.     * Requirements:     * - `spender` cannot be the zero address. - `spender` must have allowance for the caller of at least `subtractedValue`."
      },
      "increaseAllowance(address,uint256)": {
        "details": "Atomically increases the allowance granted to `spender` by the caller.     * This is an alternative to `approve` that can be used as a mitigation for problems described in `IERC20.approve`.     * Emits an `Approval` event indicating the updated allowance.     * Requirements:     * - `spender` cannot be the zero address."
      },
      "mint(address,uint256)": {
        "details": "See `ERC20._mint`.     * Requirements:     * - the caller must have the `MinterRole`."
      },
      "totalSupply()": {
        "details": "See `IERC20.totalSupply`."
      },
      "transfer(address,uint256)": {
        "details": "See `IERC20.transfer`.     * Requirements:     * - `recipient` cannot be the zero address. - the caller must have a balance of at least `amount`."
      },
      "transferFrom(address,address,uint256)": {
        "details": "See `IERC20.transferFrom`.     * Emits an `Approval` event indicating the updated allowance. This is not required by the EIP. See the note at the beginning of `ERC20`;     * Requirements: - `sender` and `recipient` cannot be the zero address. - `sender` must have a balance of at least `value`. - the caller must have allowance for `sender`'s tokens of at least `amount`."
      }
    }
  },
  "userdoc": {
    "methods": {}
  }
}