{
  "contractName": "UserWalletContract",
  "abi": [
    {
      "constant": true,
      "inputs": [],
      "name": "registration",
      "outputs": [
        {
          "name": "",
          "type": "address"
        }
      ],
      "payable": false,
      "stateMutability": "view",
      "type": "function"
    },
    {
      "constant": false,
      "inputs": [],
      "name": "renounceOwnership",
      "outputs": [],
      "payable": false,
      "stateMutability": "nonpayable",
      "type": "function"
    },
    {
      "constant": true,
      "inputs": [],
      "name": "owner",
      "outputs": [
        {
          "name": "",
          "type": "address"
        }
      ],
      "payable": false,
      "stateMutability": "view",
      "type": "function"
    },
    {
      "constant": true,
      "inputs": [],
      "name": "isOwner",
      "outputs": [
        {
          "name": "",
          "type": "bool"
        }
      ],
      "payable": false,
      "stateMutability": "view",
      "type": "function"
    },
    {
      "constant": true,
      "inputs": [],
      "name": "factory",
      "outputs": [
        {
          "name": "",
          "type": "address"
        }
      ],
      "payable": false,
      "stateMutability": "view",
      "type": "function"
    },
    {
      "constant": true,
      "inputs": [],
      "name": "attaToken",
      "outputs": [
        {
          "name": "",
          "type": "address"
        }
      ],
      "payable": false,
      "stateMutability": "view",
      "type": "function"
    },
    {
      "constant": false,
      "inputs": [
        {
          "name": "newOwner",
          "type": "address"
        }
      ],
      "name": "transferOwnership",
      "outputs": [],
      "payable": false,
      "stateMutability": "nonpayable",
      "type": "function"
    },
    {
      "inputs": [
        {
          "name": "owner",
          "type": "address"
        },
        {
          "name": "_registration",
          "type": "address"
        },
        {
          "name": "_factory",
          "type": "address"
        },
        {
          "name": "_attaToken",
          "type": "address"
        }
      ],
      "payable": false,
      "stateMutability": "nonpayable",
      "type": "constructor"
    },
    {
      "anonymous": false,
      "inputs": [
        {
          "indexed": true,
          "name": "previousOwner",
          "type": "address"
        },
        {
          "indexed": true,
          "name": "newOwner",
          "type": "address"
        }
      ],
      "name": "OwnershipTransferred",
      "type": "event"
    },
    {
      "constant": false,
      "inputs": [
        {
          "name": "tokenToBuy",
          "type": "address"
        },
        {
          "name": "tokenToSell",
          "type": "address"
        },
        {
          "name": "amount",
          "type": "uint256"
        }
      ],
      "name": "exchange",
      "outputs": [],
      "payable": false,
      "stateMutability": "nonpayable",
      "type": "function"
    },
    {
      "constant": false,
      "inputs": [
        {
          "name": "name",
          "type": "string"
        },
        {
          "name": "symbol",
          "type": "string"
        },
        {
          "name": "decimals",
          "type": "uint8"
        },
        {
          "name": "toPayAtaa",
          "type": "uint256"
        },
        {
          "name": "price",
          "type": "uint256"
        }
      ],
      "name": "createNewToken",
      "outputs": [
        {
          "name": "",
          "type": "bool"
        }
      ],
      "payable": false,
      "stateMutability": "nonpayable",
      "type": "function"
    },
    {
      "constant": true,
      "inputs": [],
      "name": "getIssuedTokens",
      "outputs": [
        {
          "name": "",
          "type": "address[]"
        }
      ],
      "payable": false,
      "stateMutability": "view",
      "type": "function"
    }
  ],
  "bytecode": "0x608060405234801561001057600080fd5b506040516080806110648339810180604052608081101561003057600080fd5b508051602082015160408084015160609094015160008054600160a060020a031916600160a060020a038087169190911780835593519596949592938793911691907f8be0079c531659141344cd1fd0a4f28419497f9722a3daafe3b4186f6b6457e0908290a35060038054600160a060020a0319908116600160a060020a03938416179091556002805482169483169490941790935560018054909316911617905550610f81806100e36000396000f3fe6080604052600436106100a35763ffffffff7c01000000000000000000000000000000000000000000000000000000006000350416630319021481146100a85780631ea481091461010d578063443bd1d014610269578063715018a61461029a5780638da5cb5b146102b15780638f32d59b146102c6578063969e3756146102db578063c45a01551461031e578063e15ec7f114610333578063f2fde38b14610348575b600080fd5b3480156100b457600080fd5b506100bd61037b565b60408051602080825283518183015283519192839290830191858101910280838360005b838110156100f95781810151838201526020016100e1565b505050509050019250505060405180910390f35b34801561011957600080fd5b50610255600480360360a081101561013057600080fd5b81019060208101813564010000000081111561014b57600080fd5b82018360208201111561015d57600080fd5b8035906020019184600183028401116401000000008311171561017f57600080fd5b91908080601f01602080910402602001604051908101604052809392919081815260200183838082843760009201919091525092959493602081019350359150506401000000008111156101d257600080fd5b8201836020820111156101e457600080fd5b8035906020019184600183028401116401000000008311171561020657600080fd5b91908080601f0160208091040260200160405190810160405280939291908181526020018383808284376000920191909152509295505060ff83351693505050602081013590604001356103dd565b604080519115158252519081900360200190f35b34801561027557600080fd5b5061027e6106f7565b60408051600160a060020a039092168252519081900360200190f35b3480156102a657600080fd5b506102af610706565b005b3480156102bd57600080fd5b5061027e6107a9565b3480156102d257600080fd5b506102556107b8565b3480156102e757600080fd5b506102af600480360360608110156102fe57600080fd5b50600160a060020a038135811691602081013590911690604001356107c9565b34801561032a57600080fd5b5061027e610cbb565b34801561033f57600080fd5b5061027e610cca565b34801561035457600080fd5b506102af6004803603602081101561036b57600080fd5b5035600160a060020a0316610cd9565b606060058054806020026020016040519081016040528092919081815260200182805480156103d357602002820191906000526020600020905b8154600160a060020a031681526001909101906020018083116103b5575b5050505050905090565b60006103e76107b8565b151561042b576040805160e560020a62461bcd0281526020600482018190526024820152600080516020610f36833981519152604482015290519081900360640190fd5b600254604080517f19f4dea8000000000000000000000000000000000000000000000000000000008152306004820181905291519192600160a060020a0316916319f4dea891602480820192602092909190829003018186803b15801561049157600080fd5b505afa1580156104a5573d6000803e3d6000fd5b505050506040513d60208110156104bb57600080fd5b505115156104c857600080fd5b6001546104de90600160a060020a031685610d31565b1515610534576040805160e560020a62461bcd02815260206004820152601f60248201527f636f756c646e27742073656e6420746f6b656e7320746f20666163746f727900604482015290519081900360640190fd5b6001546040517f1ea4810900000000000000000000000000000000000000000000000000000000815260ff87166044820152606481018690526084810185905260a060048201908152895160a48301528951600593600160a060020a031692631ea48109928c928c928c928c928c928291602482019160c4019060208a019080838360005b838110156105d15781810151838201526020016105b9565b50505050905090810190601f1680156105fe5780820380516001836020036101000a031916815260200191505b50838103825287518152875160209182019189019080838360005b83811015610631578181015183820152602001610619565b50505050905090810190601f16801561065e5780820380516001836020036101000a031916815260200191505b50975050505050505050602060405180830381600087803b15801561068257600080fd5b505af1158015610696573d6000803e3d6000fd5b505050506040513d60208110156106ac57600080fd5b50518154600180820184556000938452602090932001805473ffffffffffffffffffffffffffffffffffffffff1916600160a060020a03909216919091179055979650505050505050565b600254600160a060020a031681565b61070e6107b8565b1515610752576040805160e560020a62461bcd0281526020600482018190526024820152600080516020610f36833981519152604482015290519081900360640190fd5b60008054604051600160a060020a03909116907f8be0079c531659141344cd1fd0a4f28419497f9722a3daafe3b4186f6b6457e0908390a36000805473ffffffffffffffffffffffffffffffffffffffff19169055565b600054600160a060020a031690565b600054600160a060020a0316331490565b6107d16107b8565b1515610815576040805160e560020a62461bcd0281526020600482018190526024820152600080516020610f36833981519152604482015290519081900360640190fd5b604080517f70a0823100000000000000000000000000000000000000000000000000000000815230600482015290518291600160a060020a038516916370a0823191602480820192602092909190829003018186803b15801561087757600080fd5b505afa15801561088b573d6000803e3d6000fd5b505050506040513d60208110156108a157600080fd5b505110156108f9576040805160e560020a62461bcd02815260206004820152601660248201527f4d6f72652046756e647320617265206e65656465642e00000000000000000000604482015290519081900360640190fd5b600354604080517f095ea7b3000000000000000000000000000000000000000000000000000000008152600160a060020a0392831660048201526024810184905290519184169163095ea7b3916044808201926020929091908290030181600087803b15801561096857600080fd5b505af115801561097c573d6000803e3d6000fd5b505050506040513d602081101561099257600080fd5b5050604080517f2c4e722e0000000000000000000000000000000000000000000000000000000081529051600091600160a060020a03851691632c4e722e91600480820192602092909190829003018186803b1580156109f157600080fd5b505afa158015610a05573d6000803e3d6000fd5b505050506040513d6020811015610a1b57600080fd5b505190506000610a31838363ffffffff610dd816565b600154604080517f3928ccd7000000000000000000000000000000000000000000000000000000008152600160a060020a038881166004830152602482018890529151939450911691633928ccd7916044808201926020929091908290030181600087803b158015610aa257600080fd5b505af1158015610ab6573d6000803e3d6000fd5b505050506040513d6020811015610acc57600080fd5b50511515610b4a576040805160e560020a62461bcd02815260206004820152603260248201527f6661696c6420696e2065786368616e676520746f6b656e20776974682061747460448201527f6120746f6b656e20696e20666163746f72790000000000000000000000000000606482015290519081900360840190fd5b610b548584610d31565b1515610baa576040805160e560020a62461bcd02815260206004820152601160248201527f636f756c646e277420617070726f766520000000000000000000000000000000604482015290519081900360640190fd5b84600160a060020a03166316ce8754826040518263ffffffff167c010000000000000000000000000000000000000000000000000000000002815260040180828152602001915050602060405180830381600087803b158015610c0c57600080fd5b505af1158015610c20573d6000803e3d6000fd5b505050506040513d6020811015610c3657600080fd5b50511515610cb4576040805160e560020a62461bcd02815260206004820152602760248201527f20636f756c646e277420627579206e657720746f6b656e20776974682061747460448201527f6120636f696e7400000000000000000000000000000000000000000000000000606482015290519081900360840190fd5b5050505050565b600154600160a060020a031681565b600354600160a060020a031681565b610ce16107b8565b1515610d25576040805160e560020a62461bcd0281526020600482018190526024820152600080516020610f36833981519152604482015290519081900360640190fd5b610d2e81610e47565b50565b600354604080517f095ea7b3000000000000000000000000000000000000000000000000000000008152600160a060020a038581166004830152602482018590529151600093929092169163095ea7b39160448082019260209290919082900301818787803b158015610da357600080fd5b505af1158015610db7573d6000803e3d6000fd5b505050506040513d6020811015610dcd57600080fd5b506001949350505050565b6000808211610e31576040805160e560020a62461bcd02815260206004820152601a60248201527f536166654d6174683a206469766973696f6e206279207a65726f000000000000604482015290519081900360640190fd5b60008284811515610e3e57fe5b04949350505050565b600160a060020a0381161515610ecd576040805160e560020a62461bcd02815260206004820152602660248201527f4f776e61626c653a206e6577206f776e657220697320746865207a65726f206160448201527f6464726573730000000000000000000000000000000000000000000000000000606482015290519081900360840190fd5b60008054604051600160a060020a03808516939216917f8be0079c531659141344cd1fd0a4f28419497f9722a3daafe3b4186f6b6457e091a36000805473ffffffffffffffffffffffffffffffffffffffff1916600160a060020a039290921691909117905556fe4f776e61626c653a2063616c6c6572206973206e6f7420746865206f776e6572a165627a7a72305820ac0b87eb01a829814326c069151609ea1c438086f74e1454de9db608a343e4ec0029",
  "source": "pragma solidity ^0.5.0;\nimport \"openzeppelin-solidity/contracts/math/SafeMath.sol\";\n// import \"openzeppelin-solidity/contracts/token/ERC20/IERC20.sol\";\n\n// import \"openzeppelin-solidity/contracts/token/ERC20/SafeERC20.sol\";\n\nimport './NewToken.sol';\nimport './TokenFactory.sol';\nimport './AtaaToken.sol';\nimport \"./Registration.sol\";\nimport \"./Ownable.sol\";\n\n// what do we want to achieve through thi contract?\n/**\nas a user I want to buy some named token with fait currency \nas a user I want to buy some named token with crypto currency \nas a user I want to buy some named token with by transefering another named token  \n\n */\n\n/**\nin registeration contract , i want to call register fucntion that let e create new user wallet account \n */\ncontract UserWalletContract is Ownable{\nTokenFactory public factory ;\nRegistration public registration;\n    // using SafeERC20 for IERC20;\n\n using SafeMath for uint;\n AtaaToken public attaToken;\nmapping (address=>uint) tokenInWallet;\naddress[] issuedTokens;\nconstructor(address owner , Registration _registration ,TokenFactory _factory ,AtaaToken _attaToken )public Ownable (owner) {\n   attaToken = _attaToken;\n    registration = _registration;\n    factory = _factory;\n\n}\n\nmodifier onlyOrg(address ChrtyOrg){\n    require(registration.isOrg(ChrtyOrg));\n    _;\n}\n \n\n// function buyWithCrypto(string memory proofOfpayment ) onlyOwner{\n    \n// }\n// function buyWithFait() onlyOwner{\n    \n// }\n// user should add the token factory to allownence with the amount of token he wants to exchange\nfunction exchange(NewToken tokenToBuy , NewToken tokenToSell , uint256 amount) public onlyOwner {\n    // get attacoin amount based on their rate \n            require(tokenToSell.balanceOf(address(this)) >= amount, \"More Funds are needed.\");\n            tokenToSell.approve(address(attaToken),amount);\n                uint256 rate = tokenToSell.rate();\n\n            uint256 attaAmount = amount.div(rate);\n           require(factory. sendTokenToFactory( tokenToSell  ,  amount ),\"faild in exchange token with atta token in factory\");\n           require( _sendAttaTokenToContract(address(tokenToBuy),amount),\"couldn't approve \");\n               require( tokenToBuy.buyWithAttaCoin(attaAmount),\" couldn't buy new token with atta coint\");\n\n    \n}\n// org can call it to create new tokens\n// createNewToken(string memory name, string memory symbol, uint8 decimals, uint256  toPayAtaa, uint256 price)\nfunction createNewToken(string memory  name, string memory symbol, uint8 decimals, uint256  toPayAtaa, uint256 price)  public onlyOwner onlyOrg(address(this)) returns (bool){\nrequire( _sendAttaTokenToContract(address(factory),toPayAtaa),\"couldn't send tokens to factory\");\nissuedTokens.push(factory.createNewToken(  name, symbol, decimals,  toPayAtaa, price));\nreturn true;\n\n}\nfunction getIssuedTokens() public view returns (address []memory){\n    return issuedTokens;\n}\n\nfunction _sendAttaTokenToContract( address contractAddress,uint256 amount) internal returns (bool) {\n     attaToken.approve(contractAddress,amount);\n     return true;\n    \n    \n}\n//fallback func\n    // function() external { \n    //    }\n  \n\n}",
  "sourcePath": "/home/youssef/Desktop/yallagive/tokenbackend/contracts/UserWalletContract.sol",
  "compiler": {
    "name": "solc",
    "version": "0.5.0+commit.1d4f565a.Linux.g++"
  },
  "schemaVersion": "3.0.16",
  "updatedAt": "2019-10-23T23:21:40.870Z",
  "devdoc": {
    "methods": {
      "isOwner()": {
        "details": "Returns true if the caller is the current owner."
      },
      "owner()": {
        "details": "Returns the address of the current owner."
      },
      "renounceOwnership()": {
        "details": "Leaves the contract without owner. It will not be possible to call `onlyOwner` functions anymore. Can only be called by the current owner.     * > Note: Renouncing ownership will leave the contract without an owner, thereby removing any functionality that is only available to the owner."
      },
      "transferOwnership(address)": {
        "details": "Transfers ownership of the contract to a new account (`newOwner`). Can only be called by the current owner."
      }
    }
  },
  "userdoc": {
    "methods": {},
    "notice": "in registeration contract , i want to call register fucntion that let e create new user wallet account "
  }
}