{
  "contractName": "YallaGiveAdmins",
  "abi": [
    {
      "inputs": [],
      "payable": false,
      "stateMutability": "nonpayable",
      "type": "constructor"
    },
    {
      "anonymous": false,
      "inputs": [
        {
          "indexed": true,
          "name": "account",
          "type": "address"
        }
      ],
      "name": "YgAdminAdded",
      "type": "event"
    },
    {
      "anonymous": false,
      "inputs": [
        {
          "indexed": true,
          "name": "account",
          "type": "address"
        }
      ],
      "name": "YgAdminRemoved",
      "type": "event"
    },
    {
      "constant": true,
      "inputs": [
        {
          "name": "account",
          "type": "address"
        }
      ],
      "name": "isYgAdmin",
      "outputs": [
        {
          "name": "",
          "type": "bool"
        }
      ],
      "payable": false,
      "stateMutability": "view",
      "type": "function"
    },
    {
      "constant": false,
      "inputs": [
        {
          "name": "account",
          "type": "address"
        }
      ],
      "name": "addYgAdmin",
      "outputs": [
        {
          "name": "",
          "type": "bool"
        }
      ],
      "payable": false,
      "stateMutability": "nonpayable",
      "type": "function"
    },
    {
      "constant": false,
      "inputs": [],
      "name": "renounceYgAdmin",
      "outputs": [],
      "payable": false,
      "stateMutability": "nonpayable",
      "type": "function"
    }
  ],
  "bytecode": "0x608060405234801561001057600080fd5b5061002333640100000000610028810204565b6101da565b6100406000826401000000006102df61007782021704565b604051600160a060020a038216907f52146dba950c4a287537dffa5b464afbcd7823a1e235d66fbe81640c9223eed890600090a250565b61008a828264010000000061011b810204565b156100f657604080517f08c379a000000000000000000000000000000000000000000000000000000000815260206004820152601f60248201527f526f6c65733a206163636f756e7420616c72656164792068617320726f6c6500604482015290519081900360640190fd5b600160a060020a0316600090815260209190915260409020805460ff19166001179055565b6000600160a060020a03821615156101ba57604080517f08c379a000000000000000000000000000000000000000000000000000000000815260206004820152602260248201527f526f6c65733a206163636f756e7420697320746865207a65726f20616464726560448201527f7373000000000000000000000000000000000000000000000000000000000000606482015290519081900360840190fd5b50600160a060020a03166000908152602091909152604090205460ff1690565b610437806101e96000396000f3fe6080604052600436106100565763ffffffff7c0100000000000000000000000000000000000000000000000000000000600035041663587f3067811461005b57806368374113146100a2578063e01f2e0f146100b9575b600080fd5b34801561006757600080fd5b5061008e6004803603602081101561007e57600080fd5b5035600160a060020a03166100ec565b604080519115158252519081900360200190f35b3480156100ae57600080fd5b506100b7610184565b005b3480156100c557600080fd5b5061008e600480360360208110156100dc57600080fd5b5035600160a060020a031661018f565b60006100f73361018f565b1515610173576040805160e560020a62461bcd02815260206004820152602160248201527f4f6e6c792061646d696e2063616e2063616c6c20746869732066756e6374696f60448201527f6e00000000000000000000000000000000000000000000000000000000000000606482015290519081900360840190fd5b61017c826101a7565b506001919050565b61018d336101ef565b565b60006101a1818363ffffffff61023716565b92915050565b6101b860008263ffffffff6102df16565b604051600160a060020a038216907f52146dba950c4a287537dffa5b464afbcd7823a1e235d66fbe81640c9223eed890600090a250565b61020060008263ffffffff61036316565b604051600160a060020a038216907f8617b00bac52224142e452ef876a70c250aca46df3bb2f368982dfeec9edb04390600090a250565b6000600160a060020a03821615156102bf576040805160e560020a62461bcd02815260206004820152602260248201527f526f6c65733a206163636f756e7420697320746865207a65726f20616464726560448201527f7373000000000000000000000000000000000000000000000000000000000000606482015290519081900360840190fd5b50600160a060020a03166000908152602091909152604090205460ff1690565b6102e98282610237565b1561033e576040805160e560020a62461bcd02815260206004820152601f60248201527f526f6c65733a206163636f756e7420616c72656164792068617320726f6c6500604482015290519081900360640190fd5b600160a060020a0316600090815260209190915260409020805460ff19166001179055565b61036d8282610237565b15156103e9576040805160e560020a62461bcd02815260206004820152602160248201527f526f6c65733a206163636f756e7420646f6573206e6f74206861766520726f6c60448201527f6500000000000000000000000000000000000000000000000000000000000000606482015290519081900360840190fd5b600160a060020a0316600090815260209190915260409020805460ff1916905556fea165627a7a72305820017bbd87fdd1aa354023cd25bf4b0fc45a8c1670d7af84f25e49abfbe9247f600029",
  "source": "pragma solidity ^0.5.0;\n\nimport \"openzeppelin-solidity/contracts/access/Roles.sol\";\n\ncontract YallaGiveAdmins {\n  using Roles for Roles.Role;\n\n  event YgAdminAdded(address indexed account);\n  event YgAdminRemoved(address indexed account);\n\n  Roles.Role private YgAdmins;\n\n  constructor() public { \n    _addYgAdmin(msg.sender);\n  }\n\n  modifier onlyYgAdmin() {\n    require(isYgAdmin(msg.sender),\"Only admin can call this function\");\n    _;\n  }\n\n  function isYgAdmin(address account) public view returns (bool) {\n    return YgAdmins.has(account);\n  }\n\n  function addYgAdmin(address account) public onlyYgAdmin   returns (bool){\n    _addYgAdmin(account);\n    return true;\n  }\n\n  function renounceYgAdmin() public {\n    _removeYgAdmin(msg.sender);\n  }\n\n  function _addYgAdmin(address account) internal {\n    YgAdmins.add(account);\n    emit YgAdminAdded(account);\n  }\n\n  function _removeYgAdmin(address account) internal {\n    YgAdmins.remove(account);\n    emit YgAdminRemoved(account);\n  }\n}\n",
  "sourcePath": "/home/youssef/Desktop/yallagive/tokenbackend/contracts/YallaGiveAdmins.sol",
  "compiler": {
    "name": "solc",
    "version": "0.5.0+commit.1d4f565a.Linux.g++"
  },
  "schemaVersion": "3.0.16",
  "updatedAt": "2019-10-24T08:21:20.621Z",
  "devdoc": {
    "methods": {}
  },
  "userdoc": {
    "methods": {}
  }
}